:020000040800F2
:1000000048020020D9000008510A00085D060008D7
:1000100000000000000000000000000000000000E0
:10002000000000000000000000000000750C000847
:100030000000000000000000190B0008090D000876
:10004000EB000008EB00000800000000EB000008D7
:10005000EB0000087B040008EB0000089F04000888
:100060000000000000000000000000000000000090
:10007000EB000008EB000008EB00000800000000A7
:10008000890D00080000000000000000610D00085C
:10009000000000000000000000000000EB0000086D
:1000A00000000000EB00000800000000EB0000086A
:1000B000EB0000080000000000000000000000004D
:1000C0000448854600F02CF80048004785110008D8
:1000D000C046C04648020020044880470448004704
:1000E000FEE7FEE7FEE7FEE7FEE7FEE7210D00087C
:1000F000C100000830B50B46014600202022012433
:1001000009E00D46D5409D4205D31D469540491B4B
:100110002546954040191546521E002DF1DC30BD94
:10012000064C0125064E05E0E36807CC2B430C3C4A
:1001300098471034B442F7D3FFF7C6FFC811000840
:10014000E8110008002904D0426801231A434260E4
:1001500003E04268520852004260704710B542689E
:10016000174B1A40164CE4434B6823401A43426035
:1001700042680723DB019A430724E4010B6823400C
:100180001A43426082680123DB029A430124E4029D
:100190000B6923401A438260826803235B029A43FF
:1001A000032464028B6823401A4382608268054BF3
:1001B0001A40044CE443CB6823401A43826010BDCC
:1001C0008FBFFFFF8FFFF9FF42680F239B029A4307
:1001D0000B401A434260704700210160416081601A
:1001E0000161C1607047000000B587B001210320A4
:1001F000400400F0DBFC06A800F028FA0421684661
:100200000183032181760021C17606A90920C00659
:1002100000F0AEF906A800F019FA03216846018340
:1002200081760021C17606A90F4800F0A1F90121CD
:10023000480200F0CBFC01A8FFF7CEFF00200190A0
:100240007020029000200390059001A90748FFF755
:1002500085FF072189020548FFF7B6FF0121034802
:10026000FFF770FF07B000BD000400480024014004
:1002700010B586B00121082000F0A8FC194800F054
:10028000E7FD0446684600F027FF0021684601802C
:10029000002001907D21C9002046FFF72BFF401E62
:1002A00002900020039000216846017469460D48C1
:1002B00000F0E4FE01210B4800F09AFD01221146F6
:1002C000084800F01FFE13216846017501214175A1
:1002D000817505A800F0BEFB0121024800F090FDE9
:1002E00006B010BD0040014010B5012000F04EFCEA
:1002F000002000F0B7F800F097F800F0A5F800F043
:1003000049FA012008490870002008490870064889
:10031000007800F025FB0548007800F04BFB012039
:100320000349087010BD00002400002025000020B3
:100330002300002010B500F06BFB002000F092F8C5
:1003400000F028FA00200249087000F009FC10BDF6
:100350002300002010B5012000F018FC002000F060
:1003600081F80120084908700020084908700648F3
:10037000007800F0F5FA0548007800F01BFB01203A
:100380000349087010BD0000240000202500002053
:100390002300002010B500F055F800F06DF800F0D3
:1003A000A9F90446E007C00F002809D01B480078CF
:1003B000012802D1FFF7BEFF01E0FFF7CBFF10BD20
:1003C00016480078012800D0F9E7022020400028D4
:1003D0000ED013480078401C114908700846007878
:1003E000032801D9012008700D48007800F0B8FA00
:1003F0000420204000280ED00A480078401C0949FB
:10040000087008460078032801D9002008700548C4
:10041000007800F0CFFA00BFD1E7000023000020F1
:100420002400002025000020002003490870034913
:100430000860034908707047180000201C00002065
:10044000200000207047000010B50020034908700C
:100450000349087000F091FB10BD0000210000204E
:100460002200002010B5044600200249087000F068
:1004700084FB10BD22000020704710B5012000F061
:1004800065F8002802D0012000F05AF8022000F0A0
:100490005DF8002802D0022000F052F810BD10B51F
:1004A000102000F053F8002802D0102000F048F887
:1004B0000120400200F04AF8002803D00120400249
:1004C00000F03EF80120800200F040F8002803D040
:1004D0000120800200F034F80120C00200F036F85C
:1004E000002803D00120C00200F02AF801200003F8
:1004F00000F02CF8002803D00120000300F020F8C1
:100500000120400300F022F8002803D0012040031E
:1005100000F016F80120800300F018F8002803D03E
:100520000120800300F00CF80120C00300F00EF859
:10053000002803D00120C00300F002F810BD000025
:100540000149486170470000000401400146074826
:1005500040690840002806D0044800680840002888
:1005600001D0012070470020FCE70000000401409A
:10057000F8B50246CD782F073F0FCD7810263540CD
:10058000002D01D08D782F431446002011E0850600
:100590002B0E0D88012686403540002D07D025689A
:1005A0000F269E40B5433E469E4035432560451C80
:1005B000E8B20828EBDB141D0D882D1200950020F1
:1005C00011E085062B0E01258540009E3540002D4B
:1005D00007D025680F269E40B5433E469E403543D2
:1005E0002560451CE8B20828EBDBCD78282D04D126
:1005F00055690E883543556106E0CD78482D03D105
:1006000015690E8835431561F8BD70B54D07EB0EC1
:10061000082902DA0546203501E0054624352C4636
:100620000F269E402568B54316469E4035432560FB
:1006300070BD024690680840002801D00120704734
:100640000020FCE741617047016170470021C94308
:100650000180032181700421C170704700BFFEE753
:1006600008B50121480400F0A1FA6846FFF7EEFF43
:100670000B21490268460180032181704821C17025
:1006800069460920C006FFF773FF0121090309200D
:10069000C006FFF7CEFF002801D1012000E00020B6
:1006A00011490870012149020920C006FFF7C1FF66
:1006B000002801D1012000E000200C490870012130
:1006C00089020920C006FFF7B4FF002801D10120EC
:1006D00000E00020064908700020034948800349D3
:1006E00048800349488008BD0C000020100000200D
:1006F0001400002010B500240E490120000300F072
:100700001FF8002801D0012004430B4901204002BA
:1007100000F016F8002801D0022004430749012008
:10072000800200F00DF8002801D004200443204688
:1007300010BD00000C00002010000020140000205C
:10074000F8B506460C46002731460920C006FFF7DB
:1007500070FF002801D1012000E00020054620782C
:10076000A84202D10020608011E06088142802D2E3
:100770006088401C60806088142808D30020608056
:100780002078002802D0002D00D10127257038469E
:10079000F8BD000010B503490920C006FFF754FF5B
:1007A00010BD00008B09000008B50121480400F0CD
:1007B000FDF90A490920C006FFF746FF6846FFF722
:1007C00045FF064968460180032181701021C170F0
:1007D00069460920C006FFF7CBFE08BD8B09000063
:1007E00070B50446642C00D9642409480088401C74
:1007F0006043054664212846FFF77CFC0546044813
:100800000088854201D902480588A8B270BD000061
:100810000800002010B58EB00121480400F0C6F990
:1008200060210920C006FFF70DFF0DA8FFF70EFF9E
:10083000602168468186032108A881751021C17551
:100840000DA90920C006FFF793FE0121042000F046
:10085000BDF93F4800F0FCFA04467D210902FFF78C
:1008600049FC401E3B49088008A800F035FC0021E7
:100870006846018420200990364800880A900020AC
:100880000B9008A8017408A9314800F0F7FB01217A
:100890002F4800F087FA684600F0DFFB0620009042
:1008A000002001900120029000200390049001207C
:1008B00005900020069007906946254800F02CFB23
:1008C0000821234800F070FB0120019000200290D5
:1008D0000390049069461E4800F06EFB08211C48F6
:1008E00000F0B4FB012205210920C006FFF78DFEB0
:1008F000042206210920C006FFF787FE0DA8FFF796
:10090000A5FE602168468186032108A8817518210B
:10091000C1750DA90920C006FFF72AFE0022114665
:100920000B4800F058FA00220821094800F046FA66
:100930000121074800F070FA0121054800F060FA33
:10094000002005490870054908700EB010BD000070
:10095000002C0140080000200A0000200B000020AD
:1009600070B504460025032C00D90324012C01D1C5
:10097000202502E0022C00D112252846FFF730FF87
:1009800006463146094800F072FB09480470002C05
:1009900005D100221146054800F01DFA04E00422AA
:1009A0000021024800F017FA70BD0000002C014041
:1009B0000A00002070B504460025032C00D903244A
:1009C000012C01D11E2506E0022C01D10A2502E0EE
:1009D000032C00D100252846FFF702FF06463146CA
:1009E000094800F047FB09480470002C05D100229B
:1009F0000821054800F0E2F904E00122082102483C
:100A000000F0DCF970BD0000002C01400B0000205C
:100A100010B500210B4800F02AFB0021094800F026
:100A200029FB00221146074800F0D5F900220821D1
:100A3000044800F0C3F90020034908700349087016
:100A400010BD0000002C01400A0000200B00002017
:100A5000704700008178002925D01749032212022F
:100A60008918027892109200895802789207D30E62
:100A7000FF229A40914342789207120E03789B0717
:100A8000DB0E9A4011430C4A03231B02D218037851
:100A90009B109B00D1500178CA06D20E01219140D3
:100AA000054A116007E00178CA06D20E0121914083
:100AB000014A80321160704700E100E010B500F09B
:100AC00001F810BD3EB5684600F090F87D21C900E0
:100AD0000198FFF70FFB0446601E0D49884201D9BB
:100AE00001200CE0601E0B4948610321081F00F043
:100AF000FDFA0020074988610720086100200028CE
:100B000001D000BFFEE70021481E00F0EFFA3EBD15
:100B1000FFFFFF0000E000E07047000008B5012182
:100B2000480400F043F80121C9030920C006FFF77B
:100B300089FD10210920C006FFF786FD6846FFF7F2
:100B400085FD064968460180032181701021C1702E
:100B500069460920C006FFF70BFD08BD10800000A4
:100B600010B50121C9030920C006FFF76BFD102154
:100B70000920C006FFF766FD10BD10B5044601212F
:100B8000C9030920C006FFF75DFD10BD10B504467E
:100B9000002C05D010210920C006FFF755FD04E008
:100BA00010210920C006FFF74DFD10BD002905D01A
:100BB000054A52690243044B5A6104E0024A5269F1
:100BC0008243014B5A61704700100240002905D052
:100BD000054AD2690243044BDA6104E0024AD26951
:100BE0008243014BDA6170470010024010B50021CA
:100BF00000221A4B5B680C2423401946002906D0BA
:100C0000042907D0082908D00C290CD108E0144B7E
:100C100003600BE0124B036008E0124B036005E039
:100C2000114B036002E00E4B036000BF00BF0B4B93
:100C30005B68F024234019090C4B5A5C0368D340CD
:100C40004360064B5B68072424022340190A084BC3
:100C50005A5C4368D340836010BD0000001002401E
:100C600000127A00006CDC02409C0000260000208C
:100C700036000020704700000CB5002101910121D1
:100C8000009100201C490968012211431A4A116091
:100C900000BF19490968022211400029F9D01749FB
:100CA000174A11601121174A116013494868F02250
:100CB00001469143084600BF0F4948604868072233
:100CC000120201469143084600BF0B49486049683B
:100CD00089088900084A5160114649680222114377
:100CE000054A516000E000BF034949680C221140E9
:100CF0000829F8D10CBD000000100240006CDC0295
:100D0000400000200020024004480068002804D071
:100D100002480068401E0149086070470400002036
:100D200010B50D480068012108430B4908600846CA
:100D300040680A490840084948600846006801219F
:100D400009048843044908600020C04388600020EB
:100D50008860FFF791FF10BD001002400CF8FFF80B
:100D600010B50121064800F065F8002806D00120E2
:100D7000044908700121024800F03EF810BD00004F
:100D8000004001400000002010B50121044800F09F
:100D900051F8002803D00121014800F02DF810BDC2
:100DA00000040040002904D0026880231A43026036
:100DB00003E0026880239A430260704730B5036AFB
:100DC00001248C40A34314468C4001258D402C40C7
:100DD0002343036230BD30B5036A04248C40A3432F
:100DE00014468C4004258D402C402343036230BDC3
:100DF00002698A430261704702698A43026170474F
:100E0000002904D0026801231A43026003E002684B
:100E10005208520002607047002905D0426C01233D
:100E2000DB031A43426404E0426C0123DB039A4370
:100E300042647047024610690840002805D0D06817
:100E40000840002801D0012070470020FCE7000086
:100E5000F0B58BB00646002400200A90002500273C
:100E600020A103C90991089020A001460EC9C068BD
:100E7000069305920491079001A8FFF7B7FE039C23
:100E80001E484068072109020840050A1C4886429E
:100E90001DD11A484068F0210840070904A8C05D28
:100EA000002808D108A8405D002801D1204600E0B4
:100EB00060000A9013E008A8405D002801D160009E
:100EC00000E0A00004A9C95DC8400A9007E008A896
:100ED000405D002801D1204600E060000A900A9899
:100EE0000BB0F0BD0000000002040810000000007C
:100EF0000000000001020304060708090010024078
:100F0000002C0140002A03D0C3680B43C36002E0F9
:100F1000C3688B43C360704710B5826970239A43DE
:100F20000B681B01702423401A438261026A520835
:100F300052000B79DB07DB0F1A430262026A0223BD
:100F40009A430B695B00022423401A430262CA6879
:100F50004263144A904223D1026A04239A438B6865
:100F60009B00042423401A430262026A08239A4326
:100F70004B69DB00082423401A4302624268831550
:100F80009A438B691B02841523401A4342604268CE
:100F900043159A43CB695B02441523401A434260D0
:100FA00010BD0000002C0140826908239A430B40C9
:100FB0001A4382617047000010B5C26970239A43DA
:100FC0000B681B01702423401A43C261026AFF238D
:100FD00001339A434B681B02FF24013423401A4318
:100FE0000262026A63009A430B695B026400234059
:100FF0001A430262CA68C263134A904223D1026A4A
:1010000003159A438B689B02041523401A4302621E
:10101000026AC3149A434B69DB02C41423401A4387
:101020000262426883149A438B691B038414234031
:101030001A434260426843149A43CB695B034414E9
:1010400023401A43426010BD002C0140C2690823AE
:101050009A430B401A43C26170470021016041600E
:101060008160C160016141618161C16170478AB283
:10107000426370478AB2C2637047000010B50268CD
:1010800003231B029A4303242402CB6823401A4300
:1010900002600F4A904202D00E4A904207D1026885
:1010A00070239A4370244B6823401A430260084A15
:1010B000904205D1026B120A12020B7C1A430263A2
:1010C0008A68C2620A8882620122426110BD000001
:1010D000002C0140000400400021C9438160002130
:1010E0000180C160416001747047000010B50028A4
:1010F00019DB1A4A03231B02D21883089B00D2581B
:101100008307DC0EFF23A3409A438B071B0E840743
:10111000E40EA3401A43114B032424021B19840834
:10112000A4001A5118E00E4A03071B0F083B9B0846
:101130009B00D2588307DC0EFF23A3409A438B0702
:101140001B0E8407E40EA3401A43054B0407240F2B
:10115000083CA408A4001A5110BD000000E100E002
:101160001CED00E002E008C8121F08C1002AFAD1F5
:1011700070477047002001E001C1121F002AFBD117
:1011800070470000FFF79AFCFFF7C8FCFFF70CFB65
:10119000FFF740FBFFF728F8FFF762FAFFF768F860
:1011A000FFF742F9FFF750F9FFF79EF808E005480E
:1011B0000078002804D0002002490870FFF7EAF800
:1011C000F5E7000000000020E81100080000002002
:1011D00044000000641100082C12000844000020A4
:1011E000040200007411000800000000000000006C
:1011F00000000000000000000000000000000000EF
:1012000000000000000000000000000001000000DD
:1012100000000000000001020304060708090000A6
:0C1220000000010203040000006CDC026E
:04000005080000C12E
:00000001FF
