:020000040800F2
:1000000070020020D9000008B9050008B5050008F5
:1000100000000000000000000000000000000000E0
:10002000000000000000000000000000B907000808
:100030000000000000000000ED060008F1080008C4
:10004000EB000008EB00000800000000EB000008D7
:10005000EB00000887030008EB0000089B03000882
:100060000000000000000000000000000000000090
:10007000EB000008EB000008EB00000800000000A7
:100080002D0A00080000000000000000E909000837
:10009000000000000000000000000000EB0000086D
:1000A00000000000EB00000800000000EB0000086A
:1000B000EB0000080000000000000000000000004D
:1000C0000448854600F040F800480047391B000806
:1000D000C046C046700200200448804704480047DC
:1000E000FEE7FEE7FEE7FEE7FEE7FEE70909000898
:1000F000C100000830B50B46014600202022012433
:1001000009E00D46D5409D4205D31D469540491B4B
:100110002546954040191546521E002DF1DC30BD94
:1001200070B500242546002801DA01244042002948
:1001300001DA01254942FFF7DDFFAC4200D0404221
:10014000002C00D0494270BD064C0125064E05E04A
:10015000E36807CC2B430C3C98471034B442F7D3E8
:10016000FFF7B2FF8C1D0008AC1D0008002904D069
:10017000826E01231A43826603E0826E52085200A7
:1001800082667047426E120912010B071B0F1A4359
:100190004266704770B5072911DD0B46083BD9B29E
:1001A000036E8D000F24AC40A3438D001446AC4079
:1001B0008E000F25B5402C40234303660DE0C36D30
:1001C0008D000F24AC40A3438D001446AC408E003C
:1001D0000F25B5402C402343C36570BD012904D1D0
:1001E000426901231A43426105E0022903D14269B1
:1001F00002231A4342617047002904D04268012358
:100200001A43426003E0426852085200426070475D
:1002100000B585B00121480200F07AFA684600F086
:10022000ABF8002000907020019000200290049014
:100230006946074800F054F807218902044800F095
:1002400085F801210248FFF7D7FF05B000BD000087
:100250000024014070B5044600211248FFF792FFC8
:10026000224600210F48FFF795FF01210D48FFF7B7
:100270007DFF01210B4800F071F800BF0121094802
:1002800000F016F80028F9D001210648FFF7A6FF74
:10029000044800F009F8054600210248FFF766FF10
:1002A000284670BD002401400146086880B27047AE
:1002B00010B502460020012904D153690B40536157
:1002C00018460BE0022909D15369022423405361E7
:1002D000002B01D0012300E00023184610BD0000D0
:1002E00010B54268174B1A40164CE4434B68234044
:1002F0001A43426042680723DB019A430724E40162
:100300000B6823401A43426082680123DB029A4350
:100310000124E4020B6923401A43826082680323AC
:100320005B029A43032464028B6823401A43826071
:100330008268054B1A40044CE443CB6823401A43BF
:10034000826010BD8FBFFFFF8FFFF9FF42680F2350
:100350009B029A430B401A4342607047002905D024
:100360008268FF2301331A43826004E08268FF231E
:1003700001339A43826070470021016041608160CF
:100380000161C160704710B5012000F023F800281A
:1003900002D0012000F018F810BD10B50120800235
:1003A00000F018F8002803D00120800200F00CF8BB
:1003B0000120C00200F00EF8002803D00120C00286
:1003C00000F002F810BD00000149486170470000CC
:1003D000000401400146074840690840002806D053
:1003E000044800680840002801D001207047002020
:1003F000FCE70000000401408179002948D02D4924
:100400000968026891432B4A1160114649680268E5
:100410009143284A51600179002906D111460968A3
:1004200002681143234A116005E0224949680268C5
:100430001143204A51601F498968026891431D4A4F
:1004400091601146C968026891431A4AD1604179A6
:1004500010290CD11146896802681143154A916030
:100460001146C96802681143124AD16020E04179FF
:10047000082906D10F498968026811430D4A916025
:1004800016E00C49C968026811430A4AD1600FE0BE
:100490000179002906D10749096802689143054A94
:1004A000116005E00349496802689143014A5160BF
:1004B00070470000000401400021016001710C211F
:1004C0004171002181717047F8B50246CD782F0740
:1004D0003F0FCD7810263540002D01D08D782F4369
:1004E0001446002011E085062B0E0D88012686405B
:1004F0003540002D07D025680F269E40B5433E4667
:100500009E4035432560451CE8B20828EBDB141DEE
:100510000D882D120095002011E085062B0E012577
:100520008540009E3540002D07D025680F269E404F
:10053000B5433E469E4035432560451CE8B2082839
:10054000EBDBCD78282D04D155690E8835435561F4
:1005500006E0CD78482D03D115690E883543156125
:10056000F8BD70B54D07EB0E082902DA05462035B7
:1005700001E0054624352C460F269E402568B543EC
:1005800016469E403543256070BD0246906808407F
:10059000002801D0012070470020FCE7416170472E
:1005A000016170470021C94301800321817004214A
:1005B000C170704700BFFEE77047000081780029D6
:1005C00025D017490322120289180278921092004E
:1005D000895802789207D30EFF229A4091434278BD
:1005E0009207120E03789B07DB0E9A4011430C4AC8
:1005F00003231B02D21803789B109B00D150017873
:10060000CA06D20E01219140054A116007E0017827
:10061000CA06D20E01219140014A80321160704712
:1006200000E100E00349086000BF024909680029B1
:10063000FBD170470800002010B500F001F810BD94
:100640003EB5684600F074F87D21C9000198FFF7B7
:1006500051FD0446601E0D49884201D901200CE07D
:10066000601E0B4948610321081F00F05BFB00205E
:1006700007498861072008610020002801D000BFD9
:10068000FEE70021481E00F04DFB3EBDFFFFFF00CE
:1006900000E000E001280BD1124A12688243114B9E
:1006A0001A60114A126904231A430F4B1A610BE0B6
:1006B0000C4A126801231A430A4B1A600A4A12694B
:1006C00004231A43084B1A61012901D130BF02E00B
:1006D00040BF20BF20BF044A126904239A43024B43
:1006E0001A6170470070004000ED00E070470000A4
:1006F000002905D0054A52690243044B5A6104E0BF
:10070000024A52698243014B5A617047001002400D
:10071000002905D0054AD2690243044BDA6104E09E
:10072000024AD2698243014BDA61704700100240ED
:1007300010B5002100221A4B5B680C242340194697
:10074000002906D0042907D0082908D00C290CD18B
:1007500008E0144B03600BE0124B036008E0124BFF
:10076000036005E0114B036002E00E4B036000BF25
:1007700000BF0B4B5B68F024234019090C4B5A5CFB
:100780000368D3404360064B5B6807242402234080
:10079000190A084B5A5C4368D340836010BD0000BF
:1007A0000010024000127A00006CDC02409C000045
:1007B0004D0000205D0000207047000030B5002291
:1007C0008B071C0F0F23A3401A468B10002B0ED152
:1007D000224B9B689343214CA36023469B688C0764
:1007E000250F0446AC4023431C4CA36034E08B101F
:1007F000012B0ED1194BDB689343184CE360234661
:10080000DB688C07250F0446AC402343134CE360A0
:1008100022E08B10022B0ED1104B1B6993430F4C1F
:10082000236123461B698C07250F0446AC402343F4
:100830000A4C236110E08B10032B0DD1074B5B6931
:100840009343064C636123465B698C07250F04467E
:10085000AC402343014C636130BD00000000014007
:100860000CB5002101910121009100201C4909686B
:10087000012211431A4A116000BF19490968022276
:1008800011400029F9D01749174A11601121174A60
:10089000116013494868F02201469143084600BFA1
:1008A0000F494860486807221202014691430846F2
:1008B00000BF0B494860496889088900084A5160AF
:1008C0001146496802221143054A516000E000BF09
:1008D000034949680C2211400829F8D10CBD0000D9
:1008E00000100240006CDC02680000200020024082
:1008F00004480068002804D002480068401E0149EE
:10090000086070470800002010B50D4800680121FC
:1009100008430B490860084640680A4908400849EE
:1009200048600846006801210904884304490860BA
:100930000020C043886000208860FFF791FF10BD51
:10094000001002400CF8FFF800B58FB0012108201C
:10095000FFF7DEFE09A800F0DBF90021684681847C
:1009600000200A901E480B9000200C9008A80175EA
:1009700009A91C4800F09EF901211A4800F0B8F8B6
:1009800001221146174800F0E2F8062001900120EC
:100990000290039000200490059006900790089024
:1009A00001A9104800F0DEF808210E4800F022F9F5
:1009B00001210C4800F0B0F8132108A801760121AC
:1009C000417681760EA8FFF7F9FD0021054800F079
:1009D0006AF90121034800F093F80FB000BD000050
:1009E000E02E00000040014010B501210C4800F04D
:1009F000A1F8002813D00B480068401C0949086082
:100A000008460068042804D3002008600120064935
:100A1000087000F0E9FF0121014800F06DF810BDF9
:100A200000400140040000200000002010B501211A
:100A3000044800F07FF8002803D00121014800F0AD
:100A40005BF810BD0004004000B58DB0012102200C
:100A5000FFF75EFE08A800F05BF9002168460184FC
:100A60002020099012480A9000200B9008A80174D9
:100A700008A9104800F01EF90620009001200190FE
:100A800002904B20000103900020049005900690F6
:100A900007906946074800F0B5F80821054800F0BE
:100AA000FBF80121034800F02BF80DB000BD000059
:100AB000AF0400000004004008B56846FFF772FD6F
:100AC00001214804FFF714FE04220F210920C0066B
:100AD000FFF747FD0121C9036846018003218170AA
:100AE0001821C17069460920C006FFF7EDFC08BD5A
:100AF00002698A430261704702698A430261704752
:100B0000002904D0026801231A43026003E002684E
:100B10005208520002607047002905D0426C012340
:100B2000DB031A43426404E0426C0123DB039A4373
:100B300042647047024610690840002805D0D0681A
:100B40000840002801D0012070470020FCE7002A5F
:100B500003D0C3680B43C36002E0C3688B43C36028
:100B60007047000010B5826970239A430B681B011F
:100B7000702423401A438261026A520852000B79A2
:100B8000DB07DB0F1A430262026A02239A430B69F6
:100B90005B00022423401A430262CA684263144A7B
:100BA000904223D1026A04239A438B689B00042459
:100BB00023401A430262026A08239A434B69DB000E
:100BC000082423401A430262426883159A438B69C2
:100BD0001B02841523401A434260426843159A431E
:100BE000CB695B02441523401A43426010BD0000EC
:100BF000002C0140826908239A430B401A4382610A
:100C00007047000010B5C26970239A430B681B013E
:100C1000702423401A43C261026AFF2301339A43BE
:100C20004B681B02FF24013423401A430262026A0C
:100C300063009A430B695B02640023401A4302621B
:100C4000CA68C263134A904223D1026A03159A43C9
:100C50008B689B02041523401A430262026AC31484
:100C60009A434B69DB02C41423401A430262426870
:100C700083149A438B691B03841423401A434260F4
:100C8000426843149A43CB695B03441423401A43DC
:100C9000426010BD002C0140C26908239A430B40FA
:100CA0001A43C26170478AB2426370478AB2C26314
:100CB0007047000010B5026803231B029A43032407
:100CC0002402CB6823401A4302600F4A904202D0AC
:100CD0000E4A904207D1026870239A4370244B68F1
:100CE00023401A430260084A904205D1026B120A5F
:100CF00012020B7C1A4302638A68C2620A8882620B
:100D00000122426110BD0000002C0140000400409F
:100D10000021C943816000210180C16041600174EC
:100D20007047000010B5002819DB1A4A03231B0284
:100D3000D21883089B00D2588307DC0EFF23A34000
:100D40009A438B071B0E8407E40EA3401A43114BF2
:100D5000032424021B198408A4001A5118E00E4A27
:100D600003071B0F083B9B089B00D2588307DC0E30
:100D7000FF23A3409A438B071B0E8407E40EA34076
:100D80001A43054B0407240F083CA408A4001A5179
:100D900010BD000000E100E01CED00E002E008C82A
:100DA000121F08C1002AFAD170477047002001E0E5
:100DB00001C1121F002AFBD17047000008B50121B4
:100DC0004804FFF795FC01218804FFF791FC684671
:100DD000FFF7E8FB0D49684601800321817000217F
:100DE000C17069460920C006FFF76EFB6846FFF731
:100DF000D9FB022168460180032181700021C17066
:100E000069460348FFF760FB08BD000008080000C2
:100E10000004004810B5012405E00021204600F040
:100E2000EFFE601CC4B2052CF7DD10BDF8B500263E
:100E3000002400F055FD064600F0DAFB044600F001
:100E40001FFB002000F05EFA00F0B8F9CA480078F5
:100E5000002806D0002000F065FE0020C749087079
:100E600013E0012E11D1C5480078002806D00020DB
:100E700000F058FE0020C149087006E04B204001F8
:100E800000F050FE0120BD490870BD4800780028E0
:100E900004D0012857D0022874D133E100F0E8FED5
:100EA000B8484079002811D0B7480068401CB649BE
:100EB0000860B649884209D30020B3490860B149A7
:100EC000487100F02FFE0220AD4908700121B048A2
:100ED000FFF75BFB002806D1AE480078002802D05F
:100EE0000020A9490860A5480078002802D0002009
:100EF000A5490860022E25D19F480078002821D1FD
:100F0000A1490860A4490860A4480078642803D176
:100F1000002000F049FE0EE0A04909784822514324
:100F200008460A21FFF7FCF86921C900081A87B2B0
:100F3000384600F039FE9948007800F0BFFE0120E5
:100F40008F49087016E1002E01D1002C03D000203B
:100F50009149086004E090480068401C8E49086090
:100F6000022E05D100F00CFB00208549087001E13C
:100F700081480078002806D000F002FB002080495C
:100F80000870F7E0F3E0864800688649884204D29A
:100F900083480068401C82490860002C7AD082484F
:100FA0000078002803D000207D49086037E07C48A5
:100FB00000687D210901884205D97C480480002011
:100FC000774908602BE0002C04DD78480021415E61
:100FD000002906DC002C1DDA74480021415E00293E
:100FE00018DA72480088001900B270490880084673
:100FF0000021415E072906DA01460020085E06212D
:10100000C94388420BDC012067490870002064490D
:10101000086004E065480480002061490860624877
:101020000078002803D020460A21484300E02046EB
:1010300000905A4801780098081805B2012D00DA8E
:101040000125642D00DD642554480078854221D0B7
:1010500052490D7008460078642803D1002000F042
:10106000A3FD0EE04D4909784822514308460A2164
:10107000FFF756F86921C900081A87B2384600F010
:1010800093FD4648007800F019FE0020484908709A
:101090003D4908604448007800280AD0404800686C
:1010A0007D21C900884204D90020404908803E497A
:1010B00008703F480078002813D033480068401C6F
:1010C000314908607D21090188421AD300202E4948
:1010D00008603248007800F0F1FD002034490870C3
:1010E0000FE029480068401C2749086031498842C0
:1010F00007D300202449086000F0BAFD01202C49E4
:10110000087037E0002000F00DFD4B20000100F0DA
:101110004BFD0420FFF79EF82749884202D200F0D9
:10112000F7FA0DE000F0A4FD0020174908601A4905
:10113000086001201349487100201149087019E026
:1011400000F042FD0520FFF76DFA4B20000100F092
:101150002BFD00F08DFD00200B4908600E49086052
:1011600001200849487100200549087002E000F09C
:1011700007FA00BF00BFF8BD180000204C00002097
:10118000200000200D000020240000201027000077
:10119000000400480C00002028000020210000204E
:1011A0002C000020FFFF0000320000203000002053
:1011B0003300002088130000CC0400001B4909788C
:1011C000012901D11A4900E019490846194909685D
:1011D000C910814203D318490978002914D117494D
:1011E0000988491C154A118011460988FF22F532E9
:1011F00091421ADD1146114A11800121104A1170E5
:1012000000210D4A117010E00B49097800290CDD0E
:101210000A490988002905D008490988491E074A52
:10122000118002E00021064A117070472000002062
:1012300099090000140000201A000020440000203A
:101240001800002010B5044607480078002805D093
:1012500022460B21054800F00DF810BD22460B2157
:10126000034800F007F8F8E70C000020541D0008C0
:10127000281D0008FEB504460F4616462088B042D9
:1012800001D8A078FEBD781E8000205AB04204D359
:10129000781E800000198078F4E700252DE0A80072
:1012A000205AB04227D3681C8000205AB04222D86E
:1012B000A800215A681C8000205A081A0290681C55
:1012C0008000205A301A0190A80000198178681C0B
:1012D000800000198078081A0090019A0099514303
:1012E00008460299FEF71CFF691C890009198978D4
:1012F0004018C0B2C6E7681CC5B2781EA842CEDC52
:101300000020BFE710B5044657480078401C5649F6
:101310000870002C1AD0012000F092FA534908708E
:10132000022C0ED15248007800280AD108460078D5
:1013300050490978884203DA4C4800784D490870D2
:1013400091E04A4800784B4908708CE046480078A4
:101350006428F5DB00204449087000F071FA434925
:1013600008704348007800283AD10846007841497F
:101370000978884219DA40480068002804D03E48BD
:101380000068401E3C4908603C480068401C3B49DE
:10139000086008460068462865D90020086035487E
:1013A0000078401E334908705DE0304800783149CC
:1013B0000978884257DD30480068401C2E49086093
:1013C00008460068462801D9002008602B480068BC
:1013D000002848D029480068401E2849086042E09B
:1013E0002248007823490978884219DA224800689F
:1013F000002804D020480068401E1F4908601F488C
:101400000068401C1D49086008460068C8282AD9A1
:101410000020086017480078401E1649087022E036
:10142000124800781349097888421CDD1248006888
:10143000401C1149086008460068C8280AD90020E5
:1014400008600C480078642804DA0A480078401CD8
:101450000849087009480068002804D00748006857
:10146000401E0649086010BD390000201900002008
:101470000C0000201A000020400000203C0000204A
:1014800070B50420FEF7E6FE054601210903092098
:10149000C006FFF77AF8002801D1012000E0002003
:1014A00004462F4885420CD92E480078401C2D490F
:1014B000087008460078642810DD01202A49087069
:1014C0000CE028480078002805D026480078401E07
:1014D0002449087002E0002023490870224800785F
:1014E000002801D0002C0BD020480078002807D11C
:1014F0001D48007800281BD01D480078642817DAA2
:101500001C480088401C80B21A490880FF21F53130
:10151000884208DB0020174908801748007801211D
:10152000484015490870144800781449C87015E0FF
:101530000D48007800280AD0002C08D000200D4962
:10154000088001200C4908700C49C87006E0002092
:1015500008490880084908700849C87070BD000033
:10156000CC0400004B0000200C00002018000020DC
:101570001A000020480000204A0000200D00002032
:1015800010B54B20000100F00FFB00F071FB0020B4
:10159000024908600249086010BD000024000020D4
:1015A0002800002008B5012103204004FFF7A0F81F
:1015B0006846FEF7F7FF012168460180032181702C
:1015C0004821C17069460920C006FEF77DFF6846C4
:1015D000FEF7E8FF01216846018003218170482160
:1015E000C17069460148FEF76FFF08BD000400485E
:1015F00070B50024002501214248FEF7C6FF0128EE
:1016000000D1044301210920C006FEF7BEFF0128D6
:1016100001D1022004433C480078FF2840D03A48DA
:10162000007884423CD038480078002801D1012C51
:1016300011D035480078012801D1032C0BD0324855
:101640000078032801D1022C05D02F480078022809
:1016500008D1002C06D12D480078401C40B22B49FF
:1016600008701DE028480078002801D1022C11D014
:1016700025480078022801D1032C0BD0224800789D
:10168000032801D1012C05D01F480078012807D17B
:10169000002C05D11D480078401E40B21B4908703F
:1016A00019480470194800214156042906DB012518
:1016B0000078001F40B2154908700DE01349002062
:1016C00008560321C943884206DC8D100F48007874
:1016D000001D40B20D4908700C48002141560429F4
:1016E00002DD04200949087008490020085603213A
:1016F000C943884202DA084604490870684240B289
:1017000070BD000000040048460000204700002093
:101710001FB501218807FEF7FBFF01214804FEF7F2
:10172000E7FF01218804FEF7E3FF00214048FFF7AF
:10173000E7F90120FEF776FF01A8FEF733FF3D49E8
:10174000684681800021C17101A90920C006FEF709
:10175000BBFE01A8FEF726FF0021C9436846818031
:101760000021C17101A93448FEF7AEFE01A8FEF7C1
:1017700019FF01218902684681804821C17101A9B0
:101780000920C006FEF7A0FE0A210020FFF716F888
:1017900002A8FEF791FE0120800202900021684617
:1017A0000173102141730121817302A8FEF724FE09
:1017B00001A8FEF7F7FE0121C902684681800421D5
:1017C000C17101A90920C006FEF77EFE0B21002091
:1017D000FEF7F4FF02A8FEF76FFE0120C0020290A0
:1017E000002168460173102141730121817302A811
:1017F000FEF702FE052168460170012141708170EB
:10180000FEF7DCFE072168460170012141708170FE
:10181000FEF7D4FE00210948FEF7EEFC012108077F
:10182000FEF776FF01210220FEF734FF1FBD000006
:1018300000400140FF9F00000004004800240140D8
:1018400070B5054600240020FEF704FD0020FEF7D9
:1018500001FD0446E400002D01D00B4804600A4855
:101860000068201A09494843C0130749096840180D
:101870000549086008460068C01005490860084628
:101880000068FFF7DFFC70BD14000020CC0C0000E6
:101890001C00002008B501214804FEF729FF684616
:1018A000FEF780FE012189026846018003218170D4
:1018B0004821C17069460920C006FEF705FE68464A
:1018C000FEF770FE01210903684601800321817043
:1018D0002821C17069460920C006FEF7F5FD08BD44
:1018E00010B5012189020920C006FEF74EFE00282E
:1018F00001D1012000E0002004461D4800780028A6
:1019000002D0012830D10AE0002C07D0012018496C
:1019100008700020174908801749087024E0002C3F
:1019200011D01548007800281DD112480088401CAD
:1019300080B2104908801149884214DB01200E4909
:101940000870022010BD002009490870094800886D
:10195000322805DD08480078002801D10120F1E790
:1019600000200449088000BF00BF0020EAE7000013
:10197000350000203600002038000020DC05000083
:1019800008B56846FEF70EFE01214804FEF7B0FEDA
:10199000FF21F13168460180032181701021C1705F
:1019A00069460920C006FEF78FFD08BD08B5012174
:1019B0004804FEF79DFE6846FEF7F4FD0322092168
:1019C000C806FEF7CEFD6846FEF7ECFD0121490290
:1019D00068460180032181701821C1706946092081
:1019E000C006FEF771FD08BD10B53C4840790028DF
:1019F00005D1FFF70FFA00203949087010BDFFF735
:101A000009FA37480078072811DA3548047833484E
:101A100000783449085C0121A1400840002851D0D9
:101A2000314A115D314A105D00F066F84AE02C48F9
:101A300000780E2813DA2A480078C01FC4B227485D
:101A400040782849085C0121A1400840002839D08D
:101A5000274A115D274A105D00F04EF832E0204819
:101A600000780E280AD11D488078C007C00F0028D2
:101A700028D00421032000F03FF823E01848007824
:101A80000F280AD11548807802210840002819D073
:101A90000421022000F030F814E0114800781028EA
:101AA00008D10E48C07800280CD00521032000F092
:101AB00023F807E009480079002803D00521022017
:101AC00000F01AF806480078401CC0B204490870BB
:101AD000122801DB0020087000BF8FE70D000020F6
:101AE00034000020001D0008121D00080B1D000816
:101AF000201D0008191D000870B506460D4601247A
:101B000005E00021204600F07BF8601CC4B2052CE3
:101B1000F7DD0221284600F073F80121304600F07D
:101B20006FF870BD10B5044621460248FFF7BBF8B8
:101B300010BD000000400140FEF77EFD4B2000017B
:101B4000FEF770FDFEF780FFFEF7FEFEFEF760FB7E
:101B5000FEF7B2FFFFF714FFFFF730F9FFF79AFE29
:101B6000FFF720FDFFF722FF6420FEF75BFD012059
:101B7000FFF7C8FB0A20FEF755FD0120FFF7C2FB67
:101B80000A20FEF74FFD0120FFF7BCFB08E00548E7
:101B90000078002804D0002002490870FFF746F9B9
:101BA000F5E700000000002010B504460448844218
:101BB00000DD044621460348FFF778F810BD000019
:101BC0005F0900000004004010B5FEF79DFEFEF71F
:101BD00073FFFFF7D5FEFFF7E9FEFFF7EFF8FFF71A
:101BE00059FEFFF7DFFC01210348FEF705FB012149
:101BF0000248FEF785FF10BD00240140004001406F
:101C0000F8B504460D46012C01D100020CE0022C6F
:101C100001D1802008E0032C01D1402004E0042CF5
:101C200001D1202000E010200646684606800321EE
:101C30008170002D07D104206946C8700920C006B4
:101C4000FEF742FC13E010206946C8700920C00668
:101C5000FEF73AFC012D05D131460920C006FEF7FA
:101C60009FFC04E031460920C006FEF797FCF8BD52
:101C700010B564210F480078FEF752FA0C460A218D
:101C80002046FEF74DFA0C4908700A2109480078F1
:101C9000FEF746FAC8B2084948700648007864283A
:101CA00001D1032000E00020034988700120087161
:101CB000487110BD1A0000200D00002070B50446C8
:101CC00064212046FEF72CFA0D460A212846FEF72D
:101CD00027FA0A4908700A212046FEF721FAC8B2FD
:101CE00006494870642C01D1032000E0002003491C
:101CF0008870002008710120487170BD0D0000201F
:101D00003F065B4F666D7D077F6F38020304040555
:101D10000505030203020203040102010301040595
:101D20000201030104010100460D6400CC0C5A00BD
:101D3000A30C50007A0C4600510C3C00280C3200D9
:101D4000FF0B2800D60B1E00840B1400320B0A0078
:101D500099090000460D6400E00C5A00CC0C5000BC
:101D6000B70C4600A30C3C007A0C3200510C280042
:101D7000280C1E00D60B1400840B0A00EA09000090
:101D8000B0044803D002E001F0000000AC1D0008E0
:101D9000000000206C0000009C0D0008181E0008C8
:101DA0006C00002004020000AC0D000800000000E0
:101DB0000000000000000000000000000000000023
:101DC000000000000064640000000000000100004A
:101DD0002823000000000000FFFF000000000000BA
:101DE00000000000000000000000000000000000F3
:101DF0000000FF00000000000000000000000000E4
:101E000000010203040607080900000000010203A4
:081E100004000000006CDC027C
:04000005080000C12E
:00000001FF
