:020000040800F2
:1000000060020020D90000081D130008990E0008A6
:1000100000000000000000000000000000000000E0
:10002000000000000000000000000000551500085E
:100030000000000000000000E5130008E9150008BA
:10004000EB000008EB00000800000000EB000008D7
:10005000EB000008B90C0008EB000008DD0C0008FC
:100060000000000000000000000000000000000090
:10007000EB000008EB000008EB00000800000000A7
:10008000691600080000000000000000411600088A
:10009000000000000000000000000000EB0000086D
:1000A00000000000EB00000800000000EB0000086A
:1000B000EB0000080000000000000000000000004D
:1000C0000448854600F02CF800480047651A0008EF
:1000D000C046C046600200200448804704480047EC
:1000E000FEE7FEE7FEE7FEE7FEE7FEE70116000893
:1000F000C100000830B50B46014600202022012433
:1001000009E00D46D5409D4205D31D469540491B4B
:100110002546954040191546521E002DF1DC30BD94
:10012000064C0125064E05E0E36807CC2B430C3C4A
:1001300098471034B442F7D3FFF7C6FFB41A00084B
:10014000D41A0008002904D0826E01231A43826663
:1001500003E0826E5208520082667047426E1209B6
:1001600012010B071B0F1A434266704770B507292F
:1001700011DD0B46083BD9B2036E8D000F24AC4055
:10018000A3438D001446AC408E000F25B5402C4093
:10019000234303660DE0C36D8D000F24AC40A343E1
:1001A0008D001446AC408E000F25B5402C402343F3
:1001B000C36570BD012904D1426901231A4342611C
:1001C00005E0022903D1426902231A4342617047C4
:1001D000002904D0426801231A43426003E04268C8
:1001E00052085200426070470146086880B270476A
:1001F00010B502460020012904D153690B40536118
:1002000018460BE0022909D15369022423405361A7
:10021000002B01D0012300E00023184610BD000090
:1002200010B54268174B1A40164CE4434B68234004
:100230001A43426042680723DB019A430724E40122
:100240000B6823401A43426082680123DB029A4311
:100250000124E4020B6923401A438260826803236D
:100260005B029A43032464028B6823401A43826032
:100270008268054B1A40044CE443CB6823401A4380
:10028000826010BD8FBFFFFF8FFFF9FF42680F2311
:100290009B029A430B401A4342607047002905D0E5
:1002A0008268FF2301331A43826004E08268FF23DF
:1002B00001339A4382607047002101604160816090
:1002C0000161C1607047000000B587B001210320C3
:1002D000400401F0DBF806A800F0D6FD04216846D2
:1002E0000183032181760021C17606A90920C00679
:1002F00000F05CFD06A800F0C7FD032168460183FD
:1003000081760021C17606A90F4800F04FFD01213A
:10031000480201F0CBF801A8FFF7CEFF00200190C2
:100320007020029000200390059001A90748FFF774
:1003300077FF072189020548FFF7A8FF012103483D
:10034000FFF746FF07B000BD00040048002401404D
:1003500070B504460D4620460549484368430646A5
:1003600004493046FFF7C6FE0646304670BD000021
:1003700088130000FF0F000010B5044622460B2131
:10038000012000F001F810BDF8B505460E461446F0
:10039000002C05D06946284600F00CF8002801D151
:1003A0000020F8BD314668460088FFF7D1FF206085
:1003B0000120F6E7F8B506460C460027002C01D1CF
:1003C0000020F8BD00211D48FFF768FF00211B48F1
:1003D000FFF7C4FE324600211848FFF7C7FE01218F
:1003E0001648FFF7AFFE01211448FFF7E3FE012195
:1003F0001248FFF753FF00250CE001210F48FFF7DB
:10040000F7FE002805D00D48FFF7EEFE20800127FB
:1004100004E06D1C012080028542EED300BF002164
:100420000648FFF73BFF00210448FFF78BFE012140
:100430000248FFF7BFFE3846C3E700000024014032
:1004400010B5044622460B210020FFF79DFF10BD8A
:1004500010B586B00121082001F028F8194801F0F4
:1004600067F90446684601F0A7FA00216846018052
:10047000002001907D21C9002046FFF73BFE401E71
:1004800002900020039000216846017469460D48DF
:1004900001F064FA01210B4801F01AF9012211461A
:1004A000084801F09FF91321684601750121417543
:1004B000817505A800F034FF0121024801F010F910
:1004C00006B010BD0040014010B500F007FF00F07D
:1004D00097FD02200149087010BD0000380000207F
:1004E00010B5012000F0C1FF002000F0C7FB002084
:1004F000104908701049087000F0F0FE00F080FD0F
:1005000000200E49087001200D49087000200D4997
:100510000870012000F00CFD002801D0012000E04F
:1005200000200949087000F0BFF9002801D0FFF74A
:10053000CBFF10BD3C0000203D0000203800002013
:10054000390000203A0000203B00002010B500F0E8
:10055000C5FE00F055FD0020054908700120054941
:10056000087000200449087000F00CF910BD00006C
:10057000380000203C0000203D00002010B5002085
:100580001149087011490870012000F06EFF00F059
:100590001FF9002802D1FFF797FF10BD01200C4979
:1005A000087000200B4908700948007800F03EFEF2
:1005B0000848007800F064FE01200749087000F048
:1005C000AFF800BFE9E700003C0000203D0000203C
:1005D000390000203A0000203800002010B500F05B
:1005E000B5F900F0E7FA00F0BBFC0446E007C00FE5
:1005F000002807D03C480078002803D000203A4962
:100600000870002439480078002817D0384800784E
:10061000002809D000F0B6FA002805D0012000F02B
:1006200024FF002032490870E007C00F002802D0E4
:10063000FFF7A4FF01E000F0A5F810BD00F034F9C9
:10064000002806D02B48007802280AD0FFF73CFF8C
:1006500007E028480078022803D1002025490870C7
:10066000EBE7E007C00F00280DD0224800780128F2
:1006700003D020480078022802D1FFF767FF01E08D
:10068000FFF77CFFD9E71B480078012800D0D4E7AA
:1006900002202040002810D017480078401C16493E
:1006A000087008460078032801D901200870124814
:1006B000007800F0BBFD00F033F804202040002853
:1006C00010D00E480078401C0C490870084600788D
:1006D000032801D9002008700848007800F0D0FDF8
:1006E00000F01EF800BFA8E73B0000203C000020FF
:1006F0003D00002038000020390000203A00002092
:1007000010B5FFF76BFF05490978002901D10121D8
:1007100000E00021084600F0B1FA10BD3D000020C5
:1007200010B5002415480078012804D0022805D00F
:10073000032809D105E02020044306E010200443EB
:1007400003E00820044300E000BF00BF0C4800782D
:10075000012804D0022805D0032809D105E004208F
:10076000044306E00220044303E00120044300E0C8
:1007700000BF00BF204600F083FC10BD3900002000
:100780003A00002010B500F075F904460E480078D4
:10079000002803D00D480078002800D010BD00F0DC
:1007A000DBF9002801D1042C08D1002000F066FA02
:1007B00000F03CFE01200549087002E0012000F035
:1007C00054FE00BFEAE700003C0000203D0000208E
:1007D00010B500F085F8002800D110BD0F48006862
:1007E0000F49884206D801200E490870FF202D309D
:1007F0000D490880094800680C49884206D3012049
:100800000B490870FF202D300A49088000F04CF891
:10081000002801D10120E0E70020DEE718000020D9
:10082000BC3400001C00002022000020C05D00003D
:100830001D000020240000200148006870470000CF
:100840001800002010B50020094908600949087007
:100850000949087009490870094908700949088060
:100860000949088009490880FFF7B2FF10BD000060
:10087000180000201C0000201D0000201E00002089
:100880001F00002020000020220000202400002063
:1008900001480078704700001F00002001480078E0
:1008A000704700001D00002007480078002807D18D
:1008B00006480078002803D105480078002801D0B8
:1008C000012070470020FCE71C0000201D000020D4
:1008D0001F00002001480078704700001E00002023
:1008E00010B51248FFF7ACFD002819D11049087067
:1008F00001201049087000200F4908800F48007837
:10090000002803D0FF202D300D4908800D480078C5
:10091000002803D0FF202D300B490880002010BD97
:1009200001200349087000BFF9E70000180000200B
:100930001E0000201F000020200000201C000020BE
:10094000220000201D0000202400002008B5FFF731
:10095000C7FF002800D108BD25480078002813D023
:1009600024480088FF212D31884204D22148008884
:10097000401C204908801F480088FF212D318842F3
:1009800002D300201A4908701B481C4A00901268C4
:100990001B4B9A4201D3012200E000221146174A64
:1009A0001268184B9A4201D8012200E0002210463A
:1009B000154BFF222D3200F02FF814480F4A0090FB
:1009C0001268134B9A4201D2012200E00022114624
:1009D0000A4A12680E4B9A4201D3012200E000221B
:1009E00010460C4BFF222D3200F016F800BFB2E784
:1009F0001F000020200000201C0000201800002004
:100A00008C3C0000BC340000220000201D000020AF
:100A1000C05D00002400002030B5039C2578002D27
:100A200010D000290AD01D88002D02D01D886D1E0F
:100A30001D801D88002D1CD125701AE0FF252D3545
:100A40001D8016E000280ED01D88954202DA1D8810
:100A50006D1C1D801D8895420BDB01252570FF252F
:100A60002D351D8005E01D88002D02D01D886D1ECE
:100A70001D8030BD0148007870470000280000202C
:100A800010B5002009490870094908800949088003
:100A9000094908700949086009490870094908703E
:100AA0000949087000F0CFFC10BD000028000020AC
:100AB0003400002036000020290000202C000020F7
:100AC00030000020310000203200002010B5FFF778
:100AD00001FF00280AD000F03FF8002806D1FFF7F8
:100AE000ABFE1649884201D3012000E000201449E2
:100AF00008701448007800281ED013480078022897
:100B00001AD112480078002816D0114800681149FF
:100B1000884211D9FFF7DEFE00280DD0FFF7B8FE9E
:100B2000002809D1FFF7BAFE002805D10448007853
:100B3000002801D1012010BD0020FCE7E45700008F
:100B40003100002032000020280000202900002071
:100B50002C0000204448000007480078012809D1F3
:100B600006480078002805D005480088642801D38D
:100B7000012070470020FCE7280000202900002009
:100B80003600002003480078022801D10120704778
:100B90000020FCE72800002070B50446002C02D19C
:100BA00000F07CF804E0FFF791FF054600F076F8CE
:100BB00070BD000010B52A48FFF7DEFB00280CD1FD
:100BC0002849087003202849087000202749088018
:100BD00027490880FFF7E0FF10BD01202149087078
:100BE0001F4800682349884213D900202049088003
:100BF0001E480088642804D21C480088401C1B49F9
:100C000008801A480088642821D3022016490870F9
:100C10001DE0134800681849884213D80020134982
:100C2000088013480088642804D211480088401CBA
:100C30000F4908800E480088642808D301200A491B
:100C4000087004E000200949088009490880FFF77E
:100C50003DFF002801D1FFF79FFF00BFBCE7000068
:100C60002C00002029000020280000203400002053
:100C700036000020444800005046000010B50446ED
:100C8000002C01D0012000E0002003490870012061
:100C9000FFF782FF10BD00003200002010B50446AF
:100CA00004480078A04204D0204600F0CCFB014864
:100CB000047010BD3000002010B5012000F064F871
:100CC000002802D0012000F059F8022000F05CF862
:100CD000002802D0022000F051F810BD10B51020FD
:100CE00000F052F8002802D0102000F047F8012050
:100CF000400200F049F8002803D00120400200F033
:100D00003DF80120800200F03FF8002803D00120C8
:100D1000800200F033F80120C00200F035F800280E
:100D200003D00120C00200F029F80120000300F0E8
:100D30002BF8002803D00120000300F01FF8012049
:100D4000400300F021F8002803D00120400300F008
:100D500015F80120800300F017F8002803D00120C7
:100D6000800300F00BF80120C00300F00DF800280C
:100D700003D00120C00300F001F810BD0149486113
:100D800070470000000401400146074840690840E0
:100D9000002806D0044800680840002801D001203F
:100DA00070470020FCE7000000040140F8B502464F
:100DB000CD782F073F0FCD7810263540002D01D07C
:100DC0008D782F431446002011E085062B0E0D88E8
:100DD000012686403540002D07D025680F269E400D
:100DE000B5433E469E4035432560451CE8B2082881
:100DF000EBDB141D0D882D120095002011E08506F7
:100E00002B0E01258540009E3540002D07D025681A
:100E10000F269E40B5433E469E4035432560451C07
:100E2000E8B20828EBDBCD78282D04D155690E886F
:100E30003543556106E0CD78482D03D115690E88FC
:100E400035431561F8BD70B54D07EB0E082902DA80
:100E50000546203501E0054624352C460F269E40E8
:100E60002568B54316469E403543256070BD024651
:100E700090680840002801D0012070470020FCE75E
:100E800041617047016170470021C943018003211E
:100E900081700421C170704700BFFEE708B50121D1
:100EA000480400F0F3FA6846FFF7EEFF0B21490211
:100EB00068460180032181704821C170694609207C
:100EC000C006FFF773FF012109030920C006FFF7E1
:100ED000CEFF002801D1012000E000201149087058
:100EE000012149020920C006FFF7C1FF002801D1F6
:100EF000012000E000200C4908700121890209202E
:100F0000C006FFF7B4FF002801D1012000E0002057
:100F10000649087000200349488003494880034976
:100F2000488008BD0C0000201000002014000020A4
:100F30000146012902D1074800787047022902D1F1
:100F400005480078F9E7042902D104480078F4E75D
:100F50000020F2E70C000020100000201400002008
:100F600010B500240E490120000300F01FF80028EE
:100F700001D0012004430B490120400200F016F883
:100F8000002801D00220044307490120800200F01C
:100F90000DF8002801D004200443204610BD0000B5
:100FA0000C0000201000002014000020F8B50646B8
:100FB0000C46002731460920C006FFF758FF0028DD
:100FC00001D1012000E0002005462078A84202D18E
:100FD0000020608011E06088142802D26088401CE4
:100FE00060806088142808D3002060802078002862
:100FF00002D0002D00D1012725703846F8BD000031
:1010000010B503490920C006FFF73CFF10BD0000E2
:101010008B09000008B50121480400F037FA0A499D
:101020000920C006FFF72EFF6846FFF72DFF06498F
:1010300068460180032181701021C1706946092032
:10104000C006FFF7B3FE08BD8B09000070B504466B
:101050000D46062C00D370BD600008490E5A002DC5
:1010600005D031460920C006FFF70AFF04E03146EB
:101070000920C006FFF706FF00BFECE7A81A00082A
:1010800070B5054600240DE00120A040284000284E
:1010900001D0012000E0002001462046FFF7D6FFE6
:1010A000601CC4B2062CEFD370BD000070B50446BE
:1010B000642C00D9642409480088401C604305461C
:1010C00064212846FFF716F8054604480088854243
:1010D00001D902480588A8B270BD000008000020B0
:1010E00010B58EB00121480400F0D0F9602109202C
:1010F000C006FFF7C5FE0DA8FFF7C6FE60216846D3
:101100008186032108A881751021C1750DA90920C8
:10111000C006FFF74BFE0121042000F0C7F93F484D
:1011200000F006FB04467D210902FEF7E3FF401EA6
:101130003B49088008A800F03FFC00216846018474
:1011400020200990364800880A9000200B9008A8BB
:10115000017408A9314800F001FC01212F4800F07A
:1011600091FA684600F0E9FB06200090002001900B
:10117000012002900020039004900120059000209F
:10118000069007906946254800F036FB0821234861
:1011900000F07AFB012001900020029003900120D2
:1011A000049069461D4800F077FB08211B4800F0B9
:1011B000BDFB012205210920C006FFF744FE0422E1
:1011C00006210920C006FFF73EFE0DA8FFF75CFED2
:1011D000602168468186032108A881751821C175A0
:1011E0000DA90920C006FFF7E1FD002211460B48BA
:1011F00000F061FA00220821084800F04FFA0121AE
:10120000064800F079FA0121044800F069FA00204C
:1012100004490870044908700EB010BD002C01404C
:10122000080000200A0000200B00002070B50446D2
:101230000025032C00D90324012C01D1202502E034
:10124000022C00D112252846FFF730FF0646314612
:10125000094800F07CFB09480470002C05D10022ED
:101260001146054800F027FA04E004220021024854
:1012700000F021FA70BD0000002C01400A0000209F
:1012800070B504460025032C00D90324012C01D19C
:101290001E2506E0022C01D10A2502E0032C00D114
:1012A00000252846FFF702FF06463146094800F0B0
:1012B00051FB09480470002C05D100220821054883
:1012C00000F0ECF904E001220821024800F0E6F900
:1012D00070BD0000002C01400B00002010B5002163
:1012E0000B4800F034FB0021094800F033FB0022DA
:1012F0001146074800F0DFF900220821044800F0F9
:10130000CDF90020034908700349087010BD0000A2
:10131000002C01400A0000200B0000207047000054
:101320008178002925D017490322120289180278F2
:1013300092109200895802789207D30EFF229A40A9
:10134000914342789207120E03789B07DB0E9A4076
:1013500011430C4A03231B02D21803789B109B00F5
:10136000D1500178CA06D20E01219140054A116080
:1013700007E00178CA06D20E01219140014A80326D
:101380001160704700E100E010B500F001F810BDF9
:101390003EB5684600F09AF87D21C9000198FEF735
:1013A000A9FE0446601E0D49884201D901200CE0C7
:1013B000601E0B4948610321081F00F007FB002055
:1013C00007498861072008610020002801D000BF7C
:1013D000FEE70021481E00F0F9FA3EBDFFFFFF00C6
:1013E00000E000E07047000008B50121480400F06B
:1013F0004DF80121C9030920C006FFF741FD102166
:101400000920C006FFF73EFD6846FFF73DFD06498F
:1014100068460180032181701021C170694609204E
:10142000C006FFF7C3FC08BD1080000010B5012105
:10143000C9030920C006FFF723FD10210920C006BB
:10144000FFF71EFD10BD10B50446002C06D001218B
:10145000C9030920C006FFF715FD05E00121C903F6
:101460000920C006FFF70CFD10BD10B50446002C86
:1014700005D010210920C006FFF704FD04E010216B
:101480000920C006FFF7FCFC10BD0000002905D0B4
:10149000054A52690243044B5A6104E0024A526908
:1014A0008243014B5A61704700100240002905D069
:1014B000054AD2690243044BDA6104E0024AD26968
:1014C0008243014BDA6170470010024010B50021E1
:1014D00000221A4B5B680C2423401946002906D0D1
:1014E000042907D0082908D00C290CD108E0144B96
:1014F00003600BE0124B036008E0124B036005E051
:10150000114B036002E00E4B036000BF00BF0B4BAA
:101510005B68F024234019090C4B5A5C0368D340E4
:101520004360064B5B68072424022340190A084BDA
:101530005A5C4368D340836010BD00000010024035
:1015400000127A00006CDC02409C00003E0000208B
:101550004E000020704700000CB5002101910121D0
:10156000009100201C490968012211431A4A1160A8
:1015700000BF19490968022211400029F9D0174912
:10158000174A11601121174A116013494868F02267
:1015900001469143084600BF0F494860486807224A
:1015A000120201469143084600BF0B494860496852
:1015B00089088900084A516011464968022211438E
:1015C000054A516000E000BF034949680C22114000
:1015D0000829F8D10CBD000000100240006CDC02AC
:1015E000580000200020024004480068002804D071
:1015F00002480068401E014908607047040000204E
:1016000010B50D480068012108430B4908600846E1
:1016100040680A49084008494860084600680121B6
:1016200009048843044908600020C0438860002002
:101630008860FFF791FF10BD001002400CF8FFF822
:1016400010B50121064800F065F8002806D00120F9
:10165000044908700121024800F03EF810BD000066
:10166000004001400000002010B50121044800F0B6
:1016700051F8002803D00121014800F02DF810BDD9
:1016800000040040002904D0026880231A4302604D
:1016900003E0026880239A430260704730B5036A12
:1016A00001248C40A34314468C4001258D402C40DE
:1016B0002343036230BD30B5036A04248C40A34346
:1016C00014468C4004258D402C402343036230BDDA
:1016D00002698A430261704702698A430261704766
:1016E000002904D0026801231A43026003E0026863
:1016F0005208520002607047002905D0426C012355
:10170000DB031A43426404E0426C0123DB039A4387
:1017100042647047024610690840002805D0D0682E
:101720000840002801D0012070470020FCE700009D
:10173000F0B58BB00646002400200A900025002753
:1017400020A103C90991089020A001460EC9C068D4
:10175000069305920491079001A8FFF7B7FE039C3A
:101760001E484068072109020840050A1C488642B5
:101770001DD11A484068F0210840070904A8C05D3F
:10178000002808D108A8405D002801D1204600E0CB
:1017900060000A9013E008A8405D002801D16000B5
:1017A00000E0A00004A9C95DC8400A9007E008A8AD
:1017B000405D002801D1204600E060000A900A98B0
:1017C0000BB0F0BD00000000020408100000000093
:1017D000000000000102030406070809001002408F
:1017E000002C0140002A03D0C3680B43C36002E011
:1017F000C3688B43C360704710B5826970239A43F6
:101800000B681B01702423401A438261026A52084C
:1018100052000B79DB07DB0F1A430262026A0223D4
:101820009A430B695B00022423401A430262CA6890
:101830004263144A904223D1026A04239A438B687C
:101840009B00042423401A430262026A08239A433D
:101850004B69DB00082423401A4302624268831567
:101860009A438B691B02841523401A4342604268E5
:1018700043159A43CB695B02441523401A434260E7
:1018800010BD0000002C0140826908239A430B40E0
:101890001A4382617047000010B5C26970239A43F1
:1018A0000B681B01702423401A43C261026AFF23A4
:1018B00001339A434B681B02FF24013423401A432F
:1018C0000262026A63009A430B695B026400234070
:1018D0001A430262CA68C263134A904223D1026A61
:1018E00003159A438B689B02041523401A43026236
:1018F000026AC3149A434B69DB02C41423401A439F
:101900000262426883149A438B691B038414234048
:101910001A434260426843149A43CB695B03441400
:1019200023401A43426010BD002C0140C2690823C5
:101930009A430B401A43C261704700210160416025
:101940008160C160016141618161C16170478AB29A
:10195000426370478AB2C2637047000010B50268E4
:1019600003231B029A4303242402CB6823401A4317
:1019700002600F4A904202D00E4A904207D102689C
:1019800070239A4370244B6823401A430260084A2C
:10199000904205D1026B120A12020B7C1A430263B9
:1019A0008A68C2620A8882620122426110BD000018
:1019B000002C0140000400400021C9438160002147
:1019C0000180C160416001747047000010B50028BB
:1019D00019DB1A4A03231B02D21883089B00D25832
:1019E0008307DC0EFF23A3409A438B071B0E84075B
:1019F000E40EA3401A43114B032424021B1984084C
:101A0000A4001A5118E00E4A03071B0F083B9B085D
:101A10009B00D2588307DC0EFF23A3409A438B0719
:101A20001B0E8407E40EA3401A43054B0407240F42
:101A3000083CA408A4001A5110BD000000E100E019
:101A40001CED00E002E008C8121F08C1002AFAD10C
:101A500070477047002001E001C1121F002AFBD12E
:101A600070470000FFF790FCFFF7BEFCFFF7D2FACB
:101A7000FFF736FBFEF728FCFFF710FAFEF7E8FC4D
:101A8000FEF7E0FEFEF7FCFFFEF72AFD08E0054842
:101A90000078002804D0002002490870FEF730FECC
:101AA000F5E70000000000200008020001008000AF
:101AB00000010800D41A0008000000205C000000AB
:101AC000441A0008301B00085C00002004020000DB
:101AD000541A000800000000000000000000000090
:101AE00000000000000000000000000000000000F6
:101AF00000000000000000000000000000000000E6
:101B000000000000000000000000000000010000D4
:101B100000000000000000000000010203040607AE
:101B2000080900000000010203040000006CDC0250
:04000005080000C12E
:00000001FF
