:020000040800F2
:1000000048020020D9000008450B0008C10600087E
:1000100000000000000000000000000000000000E0
:10002000000000000000000000000000690D000852
:1000300000000000000000000D0C0008FD0D00088D
:10004000EB000008EB00000800000000EB000008D7
:10005000EB000008DF040008EB00000803050008BF
:100060000000000000000000000000000000000090
:10007000EB000008EB000008EB00000800000000A7
:100080007D0E00080000000000000000550E000872
:10009000000000000000000000000000EB0000086D
:1000A00000000000EB00000800000000EB0000086A
:1000B000EB0000080000000000000000000000004D
:1000C0000448854600F02CF80048004779120008E3
:1000D000C046C04648020020044880470448004704
:1000E000FEE7FEE7FEE7FEE7FEE7FEE7150E000887
:1000F000C100000830B50B46014600202022012433
:1001000009E00D46D5409D4205D31D469540491B4B
:100110002546954040191546521E002DF1DC30BD94
:10012000064C0125064E05E0E36807CC2B430C3C4A
:1001300098471034B442F7D3FFF7C6FFC81200083F
:10014000E8120008002904D0426801231A434260E3
:1001500003E04268520852004260704710B542689E
:10016000174B1A40164CE4434B6823401A43426035
:1001700042680723DB019A430724E4010B6823400C
:100180001A43426082680123DB029A430124E4029D
:100190000B6923401A438260826803235B029A43FF
:1001A000032464028B6823401A4382608268054BF3
:1001B0001A40044CE443CB6823401A43826010BDCC
:1001C0008FBFFFFF8FFFF9FF42680F239B029A4307
:1001D0000B401A434260704700210160416081601A
:1001E0000161C1607047000000B587B001210320A4
:1001F000400400F055FD06A800F05AFA04216846B4
:100200000183032181760021C17606A90920C00659
:1002100000F0E0F906A800F04BFA032168460183DC
:1002200081760021C17606A90F4800F0D3F901219B
:10023000480200F045FD01A8FFF7CEFF0020019025
:100240007020029000200390059001A90748FFF755
:1002500085FF072189020548FFF7B6FF0121034802
:10026000FFF770FF07B000BD000400480024014004
:1002700010B586B00121082000F022FD194800F0D9
:1002800061FE0446684600F0A1FF00216846018037
:10029000002001907D21C9002046FFF72BFF401E62
:1002A00002900020039000216846017469460D48C1
:1002B00000F05EFF01210B4800F014FE0122114600
:1002C000084800F099FE1321684601750121417527
:1002D000817505A800F038FC0121024800F00AFEF3
:1002E00006B010BD0040014010B5002000F0ECF851
:1002F00000F0CCF800F0DAF8012000F02DFA002828
:1003000001D0012000E000200149087010BD00006C
:100310002600002010B500F0F5FB002000F0D4F816
:1003200000F082FA00200249087000F093FC10BD32
:100330002300002010B5012000F0A2FC002000F0F6
:10034000C3F80120094908700020094908700748CE
:10035000007800F07FFB0648007800F0A5FB012044
:100360000449087000F060F810BD0000240000206F
:10037000250000202300002010B500F095F800F0C3
:10038000ADF800F001FA0446E007C00F002811D0D4
:1003900021480078002803D000201F49087008E099
:1003A0001E480078012802D1FFF7B4FF01E0FFF7F3
:1003B000C1FF10BD19480078012800D0F9E70220DC
:1003C0002040002810D016480078401C14490870BE
:1003D00008460078032801D90120087010480078E9
:1003E00000F038FB00F020F804202040002810D056
:1003F0000C480078401C0B49087008460078032818
:1004000001D9002008700748007800F04DFB00F08B
:100410000BF800BFCDE700002600002023000020DD
:10042000240000202500002010B500241548007885
:10043000012804D0022805D0032809D105E0202096
:10044000044306E01020044303E00820044300E0D6
:1004500000BF00BF0C480078012804D0022805D056
:10046000032809D105E00420044306E002200443E8
:1004700003E00120044300E000BF00BF204600F07D
:1004800013FA10BD2400002025000020002003499D
:10049000087003490860034908707047180000207D
:1004A0001C000020200000207047000010B5002034
:1004B000034908700349087000F0D9FB10BD000023
:1004C000210000202200002010B50446002002492F
:1004D000087000F0CCFB10BD22000020704710B562
:1004E000012000F065F8002802D0012000F05AF841
:1004F000022000F05DF8002802D0022000F052F83F
:1005000010BD10B5102000F053F8002802D01020C4
:1005100000F048F80120400200F04AF8002803D01B
:100520000120400200F03EF80120800200F040F877
:10053000002803D00120800200F034F80120C0021E
:1005400000F036F8002803D00120C00200F02AF89D
:100550000120000300F02CF8002803D00120000344
:1005600000F020F80120400300F022F8002803D01A
:100570000120400300F016F80120800300F018F875
:10058000002803D00120800300F00CF80120C003F4
:1005900000F00EF8002803D00120C00300F002F89C
:1005A00010BD00000149486170470000000401408F
:1005B0000146074840690840002806D00448006802
:1005C0000840002801D0012070470020FCE700000F
:1005D00000040140F8B50246CD782F073F0FCD78D3
:1005E00010263540002D01D08D782F431446002071
:1005F00011E085062B0E0D88012686403540002D22
:1006000007D025680F269E40B5433E469E403543A1
:100610002560451CE8B20828EBDB141D0D882D125F
:100620000095002011E085062B0E01258540009ED7
:100630003540002D07D025680F269E40B5433E4625
:100640009E4035432560451CE8B20828EBDBCD7899
:10065000282D04D155690E883543556106E0CD78C3
:10066000482D03D115690E8835431561F8BD70B565
:100670004D07EB0E082902DA0546203501E0054654
:1006800024352C460F269E402568B54316469E40CD
:100690003543256070BD024690680840002801D0AF
:1006A000012070470020FCE74161704701617047FD
:1006B0000021C9430180032181700421C17070476A
:1006C00000BFFEE708B50121480400F0E9FA6846DA
:1006D000FFF7EEFF0B21490268460180032181707C
:1006E0004821C17069460920C006FFF773FF012148
:1006F00009030920C006FFF7CEFF002801D1012021
:1007000000E0002011490870012149020920C006BB
:10071000FFF7C1FF002801D1012000E000200C49B3
:100720000870012189020920C006FFF7B4FF0028E4
:1007300001D1012000E00020064908700020034993
:100740004880034948800349488008BD0C000020C8
:1007500010000020140000200146012902D10748A2
:1007600000787047022902D105480078F9E704298A
:1007700002D104480078F4E70020F2E70C000020E2
:10078000100000201400002010B500240E490120A4
:10079000000300F01FF8002801D0012004430B499A
:1007A0000120400200F016F8002801D00220044386
:1007B00007490120800200F00DF8002801D0042034
:1007C0000443204610BD00000C0000201000002053
:1007D00014000020F8B506460C46002731460920D3
:1007E000C006FFF758FF002801D1012000E00020DB
:1007F00005462078A84202D10020608011E0608880
:10080000142802D26088401C60806088142808D3B5
:10081000002060802078002802D0002D00D1012720
:1008200025703846F8BD000010B503490920C00600
:10083000FFF73CFF10BD00008B09000008B5012147
:10084000480400F02DFA0A490920C006FFF72EFFE0
:100850006846FFF72DFF0649684601800321817035
:100860001021C17069460920C006FFF7B3FE08BD1C
:100870008B09000070B504460D46062C00D370BDF0
:10088000600008490E5A002D05D031460920C006E7
:10089000FFF70AFF04E031460920C006FFF706FF14
:1008A00000BFECE7BC12000870B5054600240DE05F
:1008B0000120A0402840002801D0012000E00020B5
:1008C00001462046FFF7D6FF601CC4B2062CEFD3CA
:1008D00070BD000070B50446642C00D9642409483A
:1008E0000088401C6043054664212846FFF702FC4F
:1008F000054604480088854201D902480588A8B207
:1009000070BD00000800002010B58EB00121480421
:1009100000F0C6F960210920C006FFF7C5FE0DA84A
:10092000FFF7C6FE602168468186032108A881750D
:100930001021C1750DA90920C006FFF74BFE01214A
:10094000042000F0BDF93F4800F0FCFA04467D2188
:100950000902FFF7CFFB401E3B49088008A800F0C2
:1009600035FC002168460184202009903648008823
:100970000A9000200B9008A8017408A9314800F0E3
:10098000F7FB01212F4800F087FA684600F0DFFBF3
:10099000062000900020019001200290002003908A
:1009A0000490012005900020069007906946254894
:1009B00000F02CFB0821234800F070FB012001907F
:1009C0000020029003900120049069461D4800F029
:1009D0006DFB08211B4800F0B3FB01220521092013
:1009E000C006FFF744FE042206210920C006FFF7D7
:1009F0003EFE0DA8FFF75CFE60216846818603215C
:100A000008A881751821C1750DA90920C006FFF736
:100A1000E1FD002211460B4800F057FA00220821A0
:100A2000084800F045FA0121064800F06FFA01215C
:100A3000044800F05FFA0020044908700449087077
:100A40000EB010BD002C0140080000200A0000205C
:100A50000B00002070B504460025032C00D90324A8
:100A6000012C01D1202502E0022C00D112252846BC
:100A7000FFF730FF06463146094800F072FB09488F
:100A80000470002C05D100221146054800F01DFA23
:100A900004E004220021024800F017FA70BD0000B3
:100AA000002C01400A00002070B504460025032CEC
:100AB00000D90324012C01D11E2506E0022C01D10E
:100AC0000A2502E0032C00D100252846FFF702FF8B
:100AD00006463146094800F047FB09480470002CDF
:100AE00005D100220821054800F0E2F904E00122C6
:100AF0000821024800F0DCF970BD0000002C014024
:100B00000B00002010B500210B4800F02AFB00214B
:100B1000094800F029FB00221146074800F0D5F9EA
:100B200000220821044800F0C3F90020034908709E
:100B30000349087010BD0000002C01400A0000208D
:100B40000B000020704700008178002925D017494C
:100B500003221202891802789210920089580278B2
:100B60009207D30EFF229A40914342789207120EC9
:100B700003789B07DB0E9A4011430C4A03231B02A8
:100B8000D21803789B109B00D1500178CA06D20E70
:100B900001219140054A116007E00178CA06D20E92
:100BA00001219140014A80321160704700E100E06C
:100BB00010B500F001F810BD3EB5684600F090F8A1
:100BC0007D21C9000198FFF795FA0446601E0D4982
:100BD000884201D901200CE0601E0B4948610321C5
:100BE000081F00F0FDFA002007498861072008610E
:100BF0000020002801D000BFFEE70021481E00F0C1
:100C0000EFFA3EBDFFFFFF0000E000E0704700008C
:100C100008B50121480400F043F80121C903092067
:100C2000C006FFF741FD10210920C006FFF73EFD79
:100C30006846FFF73DFD0649684601800321817043
:100C40001021C17069460920C006FFF7C3FC08BD2A
:100C50001080000010B50121C9030920C006FFF76C
:100C600023FD10210920C006FFF71EFD10BD10B5A1
:100C700004460121C9030920C006FFF715FD10BD78
:100C800010B50446002C05D010210920C006FFF73E
:100C90000DFD04E010210920C006FFF705FD10BD81
:100CA000002905D0054A52690243044B5A6104E009
:100CB000024A52698243014B5A6170470010024058
:100CC000002905D0054AD2690243044BDA6104E0E9
:100CD000024AD2698243014BDA6170470010024038
:100CE00010B5002100221A4B5B680C2423401946E2
:100CF000002906D0042907D0082908D00C290CD1D6
:100D000008E0144B03600BE0124B036008E0124B49
:100D1000036005E0114B036002E00E4B036000BF6F
:100D200000BF0B4B5B68F024234019090C4B5A5C45
:100D30000368D3404360064B5B68072424022340CA
:100D4000190A084B5A5C4368D340836010BD000009
:100D50000010024000127A00006CDC02409C00008F
:100D60002700002037000020704700000CB500214C
:100D700001910121009100201C49096801221143C1
:100D80001A4A116000BF194909680222114000295E
:100D9000F9D01749174A11601121174A11601349F8
:100DA0004868F02201469143084600BF0F49486059
:100DB00048680722120201469143084600BF0B49CA
:100DC0004860496889088900084A516011464968A5
:100DD00002221143054A516000E000BF03494968FF
:100DE0000C2211400829F8D10CBD0000001002406F
:100DF000006CDC0240000020002002400448006833
:100E0000002804D002480068401E0149086070476D
:100E10000400002010B50D480068012108430B496B
:100E20000860084640680A49084008494860084682
:100E30000068012109048843044908600020C04378
:100E4000886000208860FFF791FF10BD001002400D
:100E50000CF8FFF810B50121064800F065F80028ED
:100E600006D00120044908700121024800F03EF834
:100E700010BD0000004001400000002010B501211D
:100E8000044800F051F8002803D00121014800F087
:100E90002DF810BD00040040002904D00268802312
:100EA0001A43026003E0026880239A43026070479D
:100EB00030B5036A01248C40A34314468C400125BD
:100EC0008D402C402343036230BD30B5036A0424B7
:100ED0008C40A34314468C4004258D402C40234372
:100EE000036230BD02698A430261704702698A4326
:100EF00002617047002904D0026801231A4302608E
:100F000003E002685208520002607047002905D0D1
:100F1000426C0123DB031A43426404E0426C012368
:100F2000DB039A4342647047024610690840002878
:100F300005D0D0680840002801D00120704700206B
:100F4000FCE70000F0B58BB00646002400200A90B4
:100F50000025002720A103C90991089020A001467F
:100F60000EC9C068069305920491079001A8FFF787
:100F7000B7FE039C1E484068072109020840050A85
:100F80001C4886421DD11A484068F02108400709D4
:100F900004A8C05D002808D108A8405D002801D140
:100FA000204600E060000A9013E008A8405D002899
:100FB00001D1600000E0A00004A9C95DC8400A900A
:100FC00007E008A8405D002801D1204600E060004D
:100FD0000A900A980BB0F0BD00000000020408104F
:100FE00000000000000000000102030406070809D9
:100FF00000100240002C0140002A03D0C3680B43BC
:10100000C36002E0C3688B43C360704710B5826958
:1010100070239A430B681B01702423401A4382619A
:10102000026A520852000B79DB07DB0F1A43026297
:10103000026A02239A430B695B00022423401A438D
:101040000262CA684263144A904223D1026A0423AE
:101050009A438B689B00042423401A430262026A6D
:1010600008239A434B69DB00082423401A43026299
:10107000426883159A438B691B02841523401A43E7
:101080004260426843159A43CB695B024415234092
:101090001A43426010BD0000002C01408269082301
:1010A0009A430B401A4382617047000010B5C26931
:1010B00070239A430B681B01702423401A43C261BA
:1010C000026AFF2301339A434B681B02FF24013459
:1010D00023401A430262026A63009A430B695B026F
:1010E000640023401A430262CA68C263134A9042F2
:1010F00023D1026A03159A438B689B02041523408F
:101100001A430262026AC3149A434B69DB02C41495
:1011100023401A430262426883149A438B691B037B
:10112000841423401A434260426843149A43CB69B3
:101130005B03441423401A43426010BD002C01405D
:10114000C26908239A430B401A43C26170470021C9
:10115000016041608160C160016141618161C16183
:1011600070478AB2426370478AB2C2637047000018
:1011700010B5026803231B029A4303242402CB68A0
:1011800023401A4302600F4A904202D00E4A904216
:1011900007D1026870239A4370244B6823401A4396
:1011A0000260084A904205D1026B120A12020B7CBF
:1011B0001A4302638A68C2620A888262012242611B
:1011C00010BD0000002C0140000400400021C94374
:1011D000816000210180C16041600174704700009E
:1011E00010B5002819DB1A4A03231B02D218830802
:1011F0009B00D2588307DC0EFF23A3409A438B0742
:101200001B0E8407E40EA3401A43114B032424024F
:101210001B198408A4001A5118E00E4A03071B0F7B
:10122000083B9B089B00D2588307DC0EFF23A3409A
:101230009A438B071B0E8407E40EA3401A43054B09
:101240000407240F083CA408A4001A5110BD000094
:1012500000E100E01CED00E002E008C8121F08C138
:10126000002AFAD170477047002001E001C1121F27
:10127000002AFBD170470000FFF79AFCFFF7C8FC7B
:10128000FFF7DCFAFFF740FBFEF7AEFFFFF71AFAB5
:10129000FEF7EEFFFFF7FAF8FFF708F9FFF724F87B
:1012A00008E005480078002804D0002002490870B2
:1012B000FFF762F8F5E700000000002000080200D8
:1012C0000100800000010800E81200080000002072
:1012D00044000000581200082C13000844000020AD
:1012E0000402000068120008000000000000000076
:1012F00000000000000000000000000000000000EE
:1013000000000000000000000000000001000000DC
:1013100000000000000000010203040607080900A5
:0C1320000000000102030400006CDC026D
:04000005080000C12E
:00000001FF
