:020000040800F2
:1000000048020020D9000008CD0E0008490A000867
:1000100000000000000000000000000000000000E0
:10002000000000000000000000000000F1100008C7
:100030000000000000000000950F00088511000876
:10004000EB000008EB00000800000000EB000008D7
:10005000EB00000867080008EB0000088B080008A8
:100060000000000000000000000000000000000090
:10007000EB000008EB000008EB00000800000000A7
:10008000051200080000000000000000DD1100085B
:10009000000000000000000000000000EB0000086D
:1000A00000000000EB00000800000000EB0000086A
:1000B000EB0000080000000000000000000000004D
:1000C0000448854600F02CF8004800470116000857
:1000D000C046C04648020020044880470448004704
:1000E000FEE7FEE7FEE7FEE7FEE7FEE79D110008FC
:1000F000C100000830B50B46014600202022012433
:1001000009E00D46D5409D4205D31D469540491B4B
:100110002546954040191546521E002DF1DC30BD94
:10012000064C0125064E05E0E36807CC2B430C3C4A
:1001300098471034B442F7D3FFF7C6FF50160008B3
:1001400070160008002904D0826E01231A438266CB
:1001500003E0826E5208520082667047426E1209B6
:1001600012010B071B0F1A434266704770B507292F
:1001700011DD0B46083BD9B2036E8D000F24AC4055
:10018000A3438D001446AC408E000F25B5402C4093
:10019000234303660DE0C36D8D000F24AC40A343E1
:1001A0008D001446AC408E000F25B5402C402343F3
:1001B000C36570BD012904D1426901231A4342611C
:1001C00005E0022903D1426902231A4342617047C4
:1001D000002904D0426801231A43426003E04268C8
:1001E00052085200426070470146086880B270476A
:1001F00010B502460020012904D153690B40536118
:1002000018460BE0022909D15369022423405361A7
:10021000002B01D0012300E00023184610BD000090
:1002200010B54268174B1A40164CE4434B68234004
:100230001A43426042680723DB019A430724E40122
:100240000B6823401A43426082680123DB029A4311
:100250000124E4020B6923401A438260826803236D
:100260005B029A43032464028B6823401A43826032
:100270008268054B1A40044CE443CB6823401A4380
:10028000826010BD8FBFFFFF8FFFF9FF42680F2311
:100290009B029A430B401A4342607047002905D0E5
:1002A0008268FF2301331A43826004E08268FF23DF
:1002B00001339A4382607047002101604160816090
:1002C0000161C1607047000000B587B001210320C3
:1002D000400400F0A9FE06A800F0AEFB0421684629
:1002E0000183032181760021C17606A90920C00679
:1002F00000F034FB06A800F09FFB03216846018351
:1003000081760021C17606A90F4800F027FB012164
:10031000480200F099FE01A8FFF7CEFF00200190EF
:100320007020029000200390059001A90748FFF774
:1003300077FF072189020548FFF7A8FF012103483D
:10034000FFF746FF07B000BD00040048002401404D
:1003500070B506460C4606487043054605492846D2
:10036000FFF7C8FE0546284660430546284670BD8F
:1003700088130000FF0F000070B5044600211448E8
:10038000FFF7ECFE224600211148FFF7EFFE0121A6
:100390000F48FFF7D7FE01210D48FFF70BFF0121A2
:1003A0000B48FFF77BFF00BF01210948FFF720FF43
:1003B0000028F9D00648FFF717FF05460121044839
:1003C000FFF7F8FE00210248FFF7BCFE284670BD8B
:1003D0000024014010B50020FFF7CEFF04460B219A
:1003E000FFF7B6FF10BD000010B586B00121082050
:1003F00000F02AFE194800F069FF0446684601F043
:10040000A9F8002168460180002001907D21C900E3
:100410002046FFF76FFE401E02900020039000214F
:100420006846017469460D4801F066F801210B48E1
:1004300000F01CFF01221146084800F0A1FF132123
:100440006846017501214175817505A800F040FDE0
:100450000121024800F012FF06B010BD004001402B
:1004600010B500F013FD002000F0F2F900F0A0FB41
:1004700002200149087010BD2400002010B500F0D2
:1004800005FD002000F0E4F900F092FB00200C498B
:10049000087001200B49087000200B4908700120EA
:1004A00000F01EFB002801D0012000E000200749D9
:1004B000087000F039F9002801D0FFF7D1FF10BD16
:1004C0002400002025000020260000202700002016
:1004D00010B500F0DBFC002000F0BAF900F068FB7A
:1004E00000200249087000F079FD10BD24000020B2
:1004F00010B500F0CBF8002802D1FFF7B1FF10BD16
:10050000012000F081FD002000F0A2F901200A493D
:1005100008700020094908700748007800F05EFC68
:100520000648007800F084FC01200549087000F0BE
:100530007BF800BFE3E70000250000202600002034
:100540002400002010B500F0FFF800F08BF900F057
:10055000DFFA0446E007C00F002807D02E480078D5
:10056000002803D000202C490870002400F0DCF89B
:10057000002806D02948007802280AD0FFF770FF2B
:1005800007E026480078022803D10020234908709C
:1005900010BDE007C00F00280DD0204800780128CA
:1005A00003D01E480078022802D1FFF791FF01E036
:1005B000FFF79EFFECE719480078012800D0E7E735
:1005C00002202040002810D015480078401C144913
:1005D000087008460078032801D9012008701048E7
:1005E000007800F0FBFB00F01FF8042020400028FA
:1005F00010D00C480078401C0A4908700846007862
:10060000032801D9002008700648007800F010FC8B
:1006100000F00AF800BFBBE72700002024000020FC
:10062000250000202600002010B500241548007881
:10063000012804D0022805D0032809D105E0202094
:10064000044306E01020044303E00820044300E0D4
:1006500000BF00BF0C480078012804D0022805D054
:10066000032809D105E00420044306E002200443E6
:1006700003E00120044300E000BF00BF204600F07B
:10068000D7FA10BD250000202600002010B5FFF786
:10069000A1FE11490860084600681049884206D842
:1006A00001200F490870FF202D300E4908800A48AC
:1006B00000680D49884206D301200C490870FF20CC
:1006C0002D300B49088000F02FF8002801D10120BF
:1006D00010BD0020FCE7000018000020BC34000022
:1006E0001C0000201E000020C05D00001D00002036
:1006F0002000002010B50020064908600649087057
:10070000064908700649088006490880FFF7BEFFC1
:1007100010BD0000180000201C0000201D0000205B
:100720001E0000202000002005480078002803D18A
:1007300004480078002801D0012070470020FCE721
:100740001C0000201D00002008B5FFF743FE1A49D9
:1007500008601A480A4600901268194B9A4201D361
:10076000012200E000221146134A1268154B9A42FA
:1007700001D8012200E000221046134BFF222D3247
:1007800000F02AF811480C4A00901268104B9A4267
:1007900001D2012200E000221146074A12680C4BE8
:1007A0009A4201D3012200E000221046094BFF22A9
:1007B0002D3200F011F808BD180000201C000020A8
:1007C0008C3C0000BC3400001E0000201D000020F6
:1007D000C05D00002000002030B5039C2578002D6E
:1007E00010D000290AD01D88002D02D01D886D1E52
:1007F0001D801D88002D1CD125701AE0FF252D3588
:100800001D8016E000280ED01D88954202DA1D8852
:100810006D1C1D801D8895420BDB01252570FF2571
:100820002D351D8005E01D88002D02D01D886D1E10
:100830001D8030BD10B500200349087003490870C1
:1008400000F0D9FB10BD0000220000202300002092
:1008500010B5044600200249087000F0CCFB10BD22
:1008600023000020704710B5012000F065F8002833
:1008700002D0012000F05AF8022000F05DF80028B4
:1008800002D0022000F052F810BD10B5102000F088
:1008900053F8002802D0102000F048F80120400250
:1008A00000F04AF8002803D00120400200F03EF892
:1008B0000120800200F040F8002803D001208002CF
:1008C00000F034F80120C00200F036F8002803D010
:1008D0000120C00200F02AF80120000300F02CF8EB
:1008E000002803D00120000300F020F8012040037D
:1008F00000F022F8002803D00120400300F016F891
:100900000120800300F018F8002803D001208003A4
:1009100000F00CF80120C00300F00EF8002803D00E
:100920000120C00300F002F810BD00000149486139
:100930007047000000040140014607484069084034
:10094000002806D0044800680840002801D0012093
:1009500070470020FCE7000000040140F8B50246A3
:10096000CD782F073F0FCD7810263540002D01D0D0
:100970008D782F431446002011E085062B0E0D883C
:10098000012686403540002D07D025680F269E4061
:10099000B5433E469E4035432560451CE8B20828D5
:1009A000EBDB141D0D882D120095002011E085064B
:1009B0002B0E01258540009E3540002D07D025686F
:1009C0000F269E40B5433E469E4035432560451C5C
:1009D000E8B20828EBDBCD78282D04D155690E88C4
:1009E0003543556106E0CD78482D03D115690E8851
:1009F00035431561F8BD70B54D07EB0E082902DAD5
:100A00000546203501E0054624352C460F269E403C
:100A10002568B54316469E403543256070BD0246A5
:100A200090680840002801D0012070470020FCE7B2
:100A300041617047016170470021C9430180032172
:100A400081700421C170704700BFFEE708B5012125
:100A5000480400F0E9FA6846FFF7EEFF0B2149026F
:100A600068460180032181704821C17069460920D0
:100A7000C006FFF773FF012109030920C006FFF735
:100A8000CEFF002801D1012000E0002011490870AC
:100A9000012149020920C006FFF7C1FF002801D14A
:100AA000012000E000200C49087001218902092082
:100AB000C006FFF7B4FF002801D1012000E00020AC
:100AC00006490870002003494880034948800349CB
:100AD000488008BD0C0000201000002014000020F9
:100AE0000146012902D1074800787047022902D146
:100AF00005480078F9E7042902D104480078F4E7B2
:100B00000020F2E70C00002010000020140000205C
:100B100010B500240E490120000300F01FF8002842
:100B200001D0012004430B490120400200F016F8D7
:100B3000002801D00220044307490120800200F070
:100B40000DF8002801D004200443204610BD000009
:100B50000C0000201000002014000020F8B506460C
:100B60000C46002731460920C006FFF758FF002831
:100B700001D1012000E0002005462078A84202D1E2
:100B80000020608011E06088142802D26088401C38
:100B900060806088142808D30020608020780028B6
:100BA00002D0002D00D1012725703846F8BD000085
:100BB00010B503490920C006FFF73CFF10BD000037
:100BC0008B09000008B50121480400F02DFA0A49FC
:100BD0000920C006FFF72EFF6846FFF72DFF0649E4
:100BE00068460180032181701021C1706946092087
:100BF000C006FFF7B3FE08BD8B09000070B50446C0
:100C00000D46062C00D370BD600008490E5A002D19
:100C100005D031460920C006FFF70AFF04E031463F
:100C20000920C006FFF706FF00BFECE744160008E6
:100C300070B5054600240DE00120A04028400028A2
:100C400001D0012000E0002001462046FFF7D6FF3A
:100C5000601CC4B2062CEFD370BD000070B5044612
:100C6000642C00D9642409480088401C6043054670
:100C700064212846FFF73EFA05460448008885426D
:100C800001D902480588A8B270BD00000800002004
:100C900010B58EB00121480400F0C6F9602109208A
:100CA000C006FFF7C5FE0DA8FFF7C6FE6021684627
:100CB0008186032108A881751021C1750DA909201D
:100CC000C006FFF74BFE0121042000F0BDF93F48AC
:100CD00000F0FCFA04467D210902FFF70BFA401EE2
:100CE0003B49088008A800F035FC002168460184D3
:100CF00020200990364800880A9000200B9008A810
:100D0000017408A9314800F0F7FB01212F4800F0D9
:100D100087FA684600F0DFFB062000900020019073
:100D200001200290002003900490012005900020F3
:100D3000069007906946254800F02CFB08212348BF
:100D400000F070FB01200190002002900390012030
:100D5000049069461D4800F06DFB08211B4800F017
:100D6000B3FB012205210920C006FFF744FE04223F
:100D700006210920C006FFF73EFE0DA8FFF75CFE26
:100D8000602168468186032108A881751821C175F4
:100D90000DA90920C006FFF7E1FD002211460B480E
:100DA00000F057FA00220821084800F045FA012116
:100DB000064800F06FFA0121044800F05FFA0020B5
:100DC00004490870044908700EB010BD002C0140A1
:100DD000080000200A0000200B00002070B5044627
:100DE0000025032C00D90324012C01D1202502E089
:100DF000022C00D112252846FFF730FF0646314667
:100E0000094800F072FB09480470002C05D100224B
:100E10001146054800F01DFA04E0042200210248B2
:100E200000F017FA70BD0000002C01400A000020FD
:100E300070B504460025032C00D90324012C01D1F0
:100E40001E2506E0022C01D10A2502E0032C00D168
:100E500000252846FFF702FF06463146094800F004
:100E600047FB09480470002C05D1002208210548E1
:100E700000F0E2F904E001220821024800F0DCF968
:100E800070BD0000002C01400B00002010B50021B7
:100E90000B4800F02AFB0021094800F029FB002242
:100EA0001146074800F0D5F900220821044800F057
:100EB000C3F90020034908700349087010BD000001
:100EC000002C01400A0000200B00002070470000A9
:100ED0008178002925D01749032212028918027847
:100EE00092109200895802789207D30EFF229A40FE
:100EF000914342789207120E03789B07DB0E9A40CB
:100F000011430C4A03231B02D21803789B109B0049
:100F1000D1500178CA06D20E01219140054A1160D4
:100F200007E00178CA06D20E01219140014A8032C1
:100F30001160704700E100E010B500F001F810BD4D
:100F40003EB5684600F090F87D21C9000198FFF792
:100F5000D1F80446601E0D49884201D901200CE0F9
:100F6000601E0B4948610321081F00F0FDFA0020B4
:100F700007498861072008610020002801D000BFD0
:100F8000FEE70021481E00F0EFFA3EBDFFFFFF0024
:100F900000E000E07047000008B50121480400F0BF
:100FA00043F80121C9030920C006FFF741FD1021C4
:100FB0000920C006FFF73EFD6846FFF73DFD0649E4
:100FC00068460180032181701021C17069460920A3
:100FD000C006FFF7C3FC08BD1080000010B501215A
:100FE000C9030920C006FFF723FD10210920C00610
:100FF000FFF71EFD10BD10B504460121C9030920ED
:10100000C006FFF715FD10BD10B50446002C05D035
:1010100010210920C006FFF70DFD04E01021092072
:10102000C006FFF705FD10BD002905D0054A52692D
:101030000243044B5A6104E0024A52698243014B65
:101040005A61704700100240002905D0054AD26954
:101050000243044BDA6104E0024AD2698243014B45
:10106000DA6170470010024010B5002100221A4BCF
:101070005B680C2423401946002906D0042907D0B8
:10108000082908D00C290CD108E0144B03600BE0B0
:10109000124B036008E0124B036005E0114B036044
:1010A00002E00E4B036000BF00BF0B4B5B68F024F7
:1010B000234019090C4B5A5C0368D3404360064B2C
:1010C0005B68072424022340190A084B5A5C4368D2
:1010D000D340836010BD00000010024000127A006F
:1010E000006CDC02409C000028000020380000203A
:1010F000704700000CB500210191012100910020F2
:101100001C490968012211431A4A116000BF19499C
:101110000968022211400029F9D01749174A1160C5
:101120001121174A116013494868F0220146914382
:10113000084600BF0F49486048680722120201466E
:101140009143084600BF0B494860496889088900F7
:10115000084A51601146496802221143054A51600C
:1011600000E000BF034949680C2211400829F8D16A
:101170000CBD000000100240006CDC0240000020AA
:101180000020024004480068002804D0024800689B
:10119000401E0149086070470400002010B50D484A
:1011A0000068012108430B490860084640680A4965
:1011B000084008494860084600680121090488433E
:1011C000044908600020C043886000208860FFF761
:1011D00091FF10BD001002400CF8FFF810B501217E
:1011E000064800F065F8002806D001200449087080
:1011F0000121024800F03EF810BD0000004001400F
:101200000000002010B50121044800F051F800282A
:1012100003D00121014800F02DF810BD000400406A
:10122000002904D0026880231A43026003E00268A8
:1012300080239A430260704730B5036A01248C40D2
:10124000A34314468C4001258D402C402343036268
:1012500030BD30B5036A04248C40A34314468C404F
:1012600004258D402C402343036230BD02698A432C
:101270000261704702698A4302617047002904D005
:10128000026801231A43026003E002685208520018
:1012900002607047002905D0426C0123DB031A432A
:1012A000426404E0426C0123DB039A4342647047CA
:1012B000024610690840002805D0D0680840002880
:1012C00001D0012070470020FCE70000F0B58BB092
:1012D0000646002400200A900025002720A103C90B
:1012E0000991089020A001460EC9C0680693059296
:1012F0000491079001A8FFF7B7FE039C1E484068C1
:10130000072109020840050A1C4886421DD11A48D7
:101310004068F0210840070904A8C05D002808D1F2
:1013200008A8405D002801D1204600E060000A9036
:1013300013E008A8405D002801D1600000E0A00093
:1013400004A9C95DC8400A9007E008A8405D0028CC
:1013500001D1204600E060000A900A980BB0F0BD71
:10136000000000000204081000000000000000005F
:10137000010203040607080900100240002C014086
:10138000002A03D0C3680B43C36002E0C3688B43E9
:10139000C360704710B5826970239A430B681B01C4
:1013A000702423401A438261026A520852000B796A
:1013B000DB07DB0F1A430262026A02239A430B69BE
:1013C0005B00022423401A430262CA684263144A43
:1013D000904223D1026A04239A438B689B00042421
:1013E00023401A430262026A08239A434B69DB00D6
:1013F000082423401A430262426883159A438B698A
:101400001B02841523401A434260426843159A43E5
:10141000CB695B02441523401A43426010BD0000B3
:10142000002C0140826908239A430B401A438261D1
:101430007047000010B5C26970239A430B681B0106
:10144000702423401A43C261026AFF2301339A4386
:101450004B681B02FF24013423401A430262026AD4
:1014600063009A430B695B02640023401A430262E3
:10147000CA68C263134A904223D1026A03159A4391
:101480008B689B02041523401A430262026AC3144C
:101490009A434B69DB02C41423401A430262426838
:1014A00083149A438B691B03841423401A434260BC
:1014B000426843149A43CB695B03441423401A43A4
:1014C000426010BD002C0140C26908239A430B40C2
:1014D0001A43C26170470021016041608160C160B0
:1014E000016141618161C16170478AB242637047A5
:1014F0008AB2C2637047000010B5026803231B0262
:101500009A4303242402CB6823401A4302600F4A03
:10151000904202D00E4A904207D1026870239A434B
:1015200070244B6823401A430260084A904205D158
:10153000026B120A12020B7C1A4302638A68C262AF
:101540000A8882620122426110BD0000002C014025
:10155000000400400021C943816000210180C16076
:10156000416001747047000010B5002819DB1A4A69
:1015700003231B02D21883089B00D2588307DC0E7A
:10158000FF23A3409A438B071B0E8407E40EA3405E
:101590001A43114B032424021B198408A4001A5176
:1015A00018E00E4A03071B0F083B9B089B00D2580C
:1015B0008307DC0EFF23A3409A438B071B0E84078F
:1015C000E40EA3401A43054B0407240F083CA4086B
:1015D000A4001A5110BD000000E100E01CED00E085
:1015E00002E008C8121F08C1002AFAD170477047EC
:1015F000002001E001C1121F002AFBD1704700004A
:10160000FFF79AFCFFF7C8FCFFF7DCFAFFF740FB97
:10161000FEF75AFEFFF71AFAFEF7E6FEFFF76AF842
:10162000FFF708F9FEF72AFF08E0054800780028D0
:1016300004D0002002490870FEF784FFF5E700009F
:1016400000000020000802000100800000010800E6
:10165000701600080000002044000000E01500089B
:10166000B41600084400002004020000F015000831
:10167000000000000000000000000000000000006A
:10168000000000000000000000000000000000005A
:101690000000000000010000000000000000000049
:1016A0000102030406070809000000000102030408
:0416B000006CDC02EC
:04000005080000C12E
:00000001FF
