:020000040800F2
:1000000068020020D90000087D160008ED110008E4
:1000100000000000000000000000000000000000E0
:10002000000000000000000000000000B5180008FB
:1000300000000000000000004517000849190008F2
:10004000EB000008EB00000800000000EB000008D7
:10005000EB000008050F0008EB000008290F00085E
:100060000000000000000000000000000000000090
:10007000EB000008EB000008EB00000800000000A7
:10008000C91900080000000000000000A1190008C4
:10009000000000000000000000000000EB0000086D
:1000A00000000000EB00000800000000EB0000086A
:1000B000EB0000080000000000000000000000004D
:1000C0000448854600F02CF800480047C51D00088C
:1000D000C046C046680200200448804704480047E4
:1000E000FEE7FEE7FEE7FEE7FEE7FEE76119000830
:1000F000C100000830B50B46014600202022012433
:1001000009E00D46D5409D4205D31D469540491B4B
:100110002546954040191546521E002DF1DC30BD94
:10012000064C0125064E05E0E36807CC2B430C3C4A
:1001300098471034B442F7D3FFF7C6FF141E0008E7
:10014000341E0008002904D0826E01231A438266FF
:1001500003E0826E5208520082667047426E1209B6
:1001600012010B071B0F1A434266704770B507292F
:1001700011DD0B46083BD9B2036E8D000F24AC4055
:10018000A3438D001446AC408E000F25B5402C4093
:10019000234303660DE0C36D8D000F24AC40A343E1
:1001A0008D001446AC408E000F25B5402C402343F3
:1001B000C36570BD012904D1426901231A4342611C
:1001C00005E0022903D1426902231A4342617047C4
:1001D000002904D0426801231A43426003E04268C8
:1001E00052085200426070470146086880B270476A
:1001F00010B502460020012904D153690B40536118
:1002000018460BE0022909D15369022423405361A7
:10021000002B01D0012300E00023184610BD000090
:1002200010B54268174B1A40164CE4434B68234004
:100230001A43426042680723DB019A430724E40122
:100240000B6823401A43426082680123DB029A4311
:100250000124E4020B6923401A438260826803236D
:100260005B029A43032464028B6823401A43826032
:100270008268054B1A40044CE443CB6823401A4380
:10028000826010BD8FBFFFFF8FFFF9FF42680F2311
:100290009B029A430B401A4342607047002905D0E5
:1002A0008268FF2301331A43826004E08268FF23DF
:1002B00001339A4382607047002101604160816090
:1002C0000161C1607047000000B587B001210320C3
:1002D000400401F08BFA06A800F080FF0421684674
:1002E0000183032181760021C17606A90920C00679
:1002F00000F006FF06A800F071FF032168460183A5
:1003000081760021C17606A90F4800F0F9FE01218F
:10031000480201F07BFA01A8FFF7CEFF0020019010
:100320007020029000200390059001A90748FFF774
:1003300077FF072189020548FFF7A8FF012103483D
:10034000FFF746FF07B000BD00040048002401404D
:1003500070B504460D4620460549484368430646A5
:1003600004493046FFF7C6FE0646304670BD000021
:1003700088130000FF0F000010B5044622460B2131
:10038000012000F01FF810BD38B50446002C05D040
:100390006946052000F02CF8002801D1002038BD66
:1003A0006846008805494843C82148430546044932
:1003B0002846FFF79FFE20600120F0E78813000029
:1003C000FF0F0000F8B505460E461446002C05D078
:1003D0006946284600F00CF8002801D10020F8BD3D
:1003E000314668460088FFF7B3FF20600120F6E73A
:1003F000F8B506460C460027002C01D10020F8BDB8
:1004000000211D48FFF74AFF00211B48FFF7A6FE09
:10041000324600211848FFF7A9FE01211648FFF7D0
:1004200091FE01211448FFF7C5FE01211248FFF794
:1004300035FF00250CE001210F48FFF7D9FE002809
:1004400005D00D48FFF7D0FE2080012704E06D1C89
:10045000012080028542EED300BF00210648FFF74D
:100460001DFF00210448FFF76DFE01210248FFF740
:10047000A1FE3846C3E700000024014010B5044641
:1004800022460B210020FFF79DFF10BD10B586B05E
:100490000121082001F0BAF9194801F0F9FA0446DF
:1004A000684601F039FC0021684601800020019077
:1004B0007D21C9002046FFF71DFE401E029000204E
:1004C000039000216846017469460D4801F0F6FB6F
:1004D00001210B4801F0ACFA01221146084801F055
:1004E00031FB13216846017501214175817505A80D
:1004F00001F0C6F80121024801F0A2FA06B010BDD1
:100500000040014038B524480078012803D100F0AC
:1005100091FF002803D100202049088038BD68469B
:10052000FFF732FF0446002C1AD07D21C900009845
:10053000884203D8002019490880EFE7174800884F
:10054000FF21F531884204D214480088401C134929
:10055000088012480088FF21F531884200D2DDE78B
:1005600001200F49087001F069F800F0F3FE002047
:1005700000F0AAFC00F08EF9002007490870012065
:10058000084908700849087000200449088001F0F3
:10059000FDF800BFC2E70000380000204400002042
:1005A00046000020420000204300002010B501F06A
:1005B00045F800F0CFFE02200249087000200249F1
:1005C000088010BD380000204400002010B5002035
:1005D0001949088019490870012001F0F6F8002037
:1005E00000F072FC0020164908701649087001F0EE
:1005F00025F800F0AFFE00201349087000F02AF83B
:10060000002012490870012000F03CFE002801D0B3
:10061000012000E000200E490870084600780028FC
:1006200002D000F067F805E000F05EFA002801D083
:10063000FFF7BCFF10BD0000440000204600002072
:10064000420000204300002038000020400000202D
:100650004100002010B50123114C2370114B124CA6
:100660002360194613E00A88104B9A420ED08B1C67
:100670000D4C2360D0B2002808D0032806D81412ED
:10068000FF2343409C4201D1054B1870891C084B45
:100690009942E8D3024B1B78064C237010BD000032
:1006A0003A000020003C00083C000020FFFF000052
:1006B000004000083900002010B500F0BFFF00F036
:1006C00049FE00F0E7F800200649087001200649BD
:1006D000087000200549087000F074F900200449F2
:1006E000088010BD38000020420000204300002098
:1006F0004400002010B500201049088010490870FF
:1007000010490870012001F060F800F081F900281C
:1007100002D1FFF74BFF10BD00200B4908700B48BA
:10072000007800F033FF0848007800F059FF0120FE
:100730000749087000F014F900BFECE744000020FE
:10074000420000204300002040000020390000202B
:100750003800002010B548480078002800D010BDAF
:1007600000F014FA00F04CFBFFF7CCFE4248007892
:10077000002800D0F3E700F09DFD0446E007C00F1D
:10078000002807D03D480078002803D000203B49CE
:10079000087000243A480078002817D039480078BB
:1007A000002809D000F014FB002805D0012001F03A
:1007B0000CF8002033490870E007C00F002802D071
:1007C000FFF798FF01E000F0FDF8C8E700F08CF9B2
:1007D000002806D02C48007802280AD0FFF7E6FE51
:1007E00007E029480078022803D100202649087034
:1007F000B5E7E007C00F00280DD023480078012896
:1008000003D021480078022802D1FFF755FF01E00C
:10081000FFF770FFA3E71C480078012800D09EE78F
:1008200002202040002810D018480078401C1749AA
:10083000087008460078032801D901200870134881
:10084000007800F0A3FE00F08BF804202040002880
:1008500010D00F480078401C0D49087008460078F9
:10086000032801D9002008700948007800F0B8FE7C
:1008700000F076F800BF72E746000020410000203B
:1008800042000020430000203800002039000020F2
:100890004000002070B504262448007824490978D7
:1008A000884200D170BD002000F09CFA1F480078FB
:1008B000FF21484005021D4909780D4300BFEFF3B1
:1008C0001080044672B600F0EDFB342000F094FB7B
:1008D000184800681849884208D3184800F092FB6D
:1008E0000646042E02D1154812490860042E15D17F
:1008F00029461048006800F0C3FB0646042E08D1C4
:100900000C4800680088A84203D1084800780849CC
:10091000087008480068801C0649086000F0A6FBC3
:1009200000BF84F3108800BF00BFBBE73900002080
:100930003A0000203C00002000400008003C000875
:1009400010B5FFF707FF05490978002901D10121FA
:1009500000E00021084600F0B7FA10BD4300002077
:1009600010B5002415480078012804D0022805D0CD
:10097000032809D105E02020044306E03020044389
:1009800003E03820044300E000BF00BF0C480078BB
:10099000012804D0022805D0032809D105E004204D
:1009A000044306E00220044303E00120044300E086
:1009B00000BF00BF204600F00DFD10BD3900002033
:1009C0004000002010B500F075F904460E4800788C
:1009D000002803D00D480078002800D010BD00F09A
:1009E000E1F9002801D1042C08D1002000F06CFAB4
:1009F00000F0CCFE01200549087002E0012000F063
:100A0000E4FE00BFEAE700004200002043000020AF
:100A100010B500F085F8002800D110BD0F4800681F
:100A20000F49884206D801200E490870FF202D305A
:100A30000D490880094800680C49884206D3012006
:100A40000B490870FF202D300A49088000F04CF84F
:100A5000002801D10120E0E70020DEE71800002097
:100A6000BC3400001C00002022000020C05D0000FB
:100A70001D0000202400002001480068704700008D
:100A80001800002010B500200949086009490870C5
:100A9000094908700949087009490870094908801E
:100AA0000949088009490880FFF7B2FF10BD00001E
:100AB000180000201C0000201D0000201E00002047
:100AC0001F00002020000020220000202400002021
:100AD00001480078704700001F000020014800789E
:100AE000704700001D00002007480078002807D14B
:100AF00006480078002803D105480078002801D076
:100B0000012070470020FCE71C0000201D00002091
:100B10001F00002001480078704700001E000020E0
:100B200010B51248FFF7AAFC002819D11049087027
:100B300001201049087000200F4908800F480078F4
:100B4000002803D0FF202D300D4908800D48007883
:100B5000002803D0FF202D300B490880002010BD55
:100B600001200349087000BFF9E7000018000020C9
:100B70001E0000201F000020200000201C0000207C
:100B8000220000201D0000202400002008B5FFF7EF
:100B9000C7FF002800D108BD25480078002813D0E1
:100BA00024480088FF212D31884204D22148008842
:100BB000401C204908801F480088FF212D318842B1
:100BC00002D300201A4908701B481C4A0090126882
:100BD0001B4B9A4201D3012200E000221146174A22
:100BE0001268184B9A4201D8012200E000221046F8
:100BF000154BFF222D3200F02FF814480F4A0090B9
:100C00001268134B9A4201D2012200E000221146E1
:100C10000A4A12680E4B9A4201D3012200E00022D8
:100C200010460C4BFF222D3200F016F800BFB2E741
:100C30001F000020200000201C00002018000020C1
:100C40008C3C0000BC340000220000201D0000206D
:100C5000C05D00002400002030B5039C2578002DE5
:100C600010D000290AD01D88002D02D01D886D1ECD
:100C70001D801D88002D1CD125701AE0FF252D3503
:100C80001D8016E000280ED01D88954202DA1D88CE
:100C90006D1C1D801D8895420BDB01252570FF25ED
:100CA0002D351D8005E01D88002D02D01D886D1E8C
:100CB0001D8030BD014800787047000028000020EA
:100CC00010B50020094908700949088009490880C1
:100CD00009490870094908600949087009490870FC
:100CE0000949087000F05FFD10BD000028000020D9
:100CF0003400002036000020290000202C000020B5
:100D000030000020310000203200002010B5FFF735
:100D100001FF002810D0FFF7AFFE1A49884203D325
:100D200001201949087007E0FFF7A6FE174988421D
:100D300002D20020144908701548007800281ED0FF
:100D40001448007802281AD113480078002816D0D9
:100D5000124800681249884211D9FFF7DBFE0028CB
:100D60000DD0FFF7B5FE002809D1FFF7B7FE002828
:100D700005D105480078002801D1012010BD0020D0
:100D8000FCE70000E457000031000020F0550000AF
:100D90003200002028000020290000202C00002024
:100DA0004448000007480078012809D10648007827
:100DB000002805D005480088642801D30120704729
:100DC0000020FCE728000020290000203600002039
:100DD00003480078022801D1012070470020FCE779
:100DE0002800002070B50446002C02D100F07CF8E9
:100DF00004E0FFF78BFF054600F076F870BD0000B9
:100E000010B52A48FFF7B8FA00280CD12849087015
:100E100003202849087000202749088027490880B6
:100E2000FFF7E0FF10BD0120214908701F4800684E
:100E30002349884213D90020204908801E48008891
:100E4000642804D21C480088401C1B4908801A48AA
:100E50000088642821D30220164908701DE0134839
:100E600000681849884213D80020134908801348A5
:100E70000088642804D211480088401C0F4908806B
:100E80000E480088642808D301200A49087004E04D
:100E900000200949088009490880FFF737FF00282A
:100EA00001D1FFF79FFF00BFBCE700002C0000202E
:100EB00029000020280000203400002036000020F7
:100EC000444800005046000010B50446002C01D0F4
:100ED000012000E00020034908700120FFF782FF95
:100EE00010BD00003200002010B504460448007810
:100EF000A04204D0204600F056FC0148047010BD0A
:100F00003000002010B5012000F064F8002802D065
:100F1000012000F059F8022000F05CF8002802D00F
:100F2000022000F051F810BD10B5102000F052F86A
:100F3000002802D0102000F047F80120400200F005
:100F400049F8002803D00120400200F03DF80120BC
:100F5000800200F03FF8002803D00120800200F05A
:100F600033F80120C00200F035F8002803D001203A
:100F7000C00200F029F80120000300F02BF800283F
:100F800003D00120000300F01FF80120400300F00F
:100F900021F8002803D00120400300F015F80120BB
:100FA000800300F017F8002803D00120800300F030
:100FB0000BF80120C00300F00DF8002803D0012039
:100FC000C00300F001F810BD0149486170470000FE
:100FD000000401400146074840690840002806D047
:100FE000044800680840002801D001207047002014
:100FF000FCE70000000401400149C86070470000A0
:101000000020024010B50446084800690221084348
:1010100006490861084644610069402108430349C4
:101020000861034800F04AF810BD000000200240AB
:10103000FF2F00000C48C068C007C00F002801D077
:10104000012070470848C06804210840002801D0EA
:101050000220F6E70448C06810210840002801D0AB
:101060000320EEE70420ECE700200240034800697B
:1010700080210843014908617047000000200240B8
:1010800030B504460D46064800690121084304496D
:1010900008612580FF20303000F010F830BD0000DE
:1010A00000200240024803494860034848607047F6
:1010B0002301674500200240AB89EFCD10B5024601
:1010C000042400BFFFF7B6FF0446521EFF2300E0D2
:1010D0005B1E002BFCD1012C01D1002AF2D1074864
:1010E000006977218843054908613420C860002AD7
:1010F00001D1052010BD2046FCE700000020024081
:10110000F8B50246CD782F073F0FCD781026354031
:10111000002D01D08D782F431446002011E0850664
:101120002B0E0D88012686403540002D07D02568FE
:101130000F269E40B5433E469E4035432560451CE4
:10114000E8B20828EBDB141D0D882D120095002055
:1011500011E085062B0E01258540009E3540002DAF
:1011600007D025680F269E40B5433E469E40354336
:101170002560451CE8B20828EBDBCD78282D04D18A
:1011800055690E883543556106E0CD78482D03D169
:1011900015690E8835431561F8BD70B54D07EB0E26
:1011A000082902DA0546203501E0054624352C469B
:1011B0000F269E402568B54316469E403543256060
:1011C00070BD024690680840002801D00120704799
:1011D0000020FCE741617047016170470021C9436D
:1011E0000180032181700421C170704700BFFEE7B8
:1011F00008B50121480400F0F9FA6846FFF7EEFF50
:101200000B21490268460180032181704821C17089
:1012100069460920C006FFF773FF01210903092071
:10122000C006FFF7CEFF002801D1012000E000201A
:1012300011490870012149020920C006FFF7C1FFCA
:10124000002801D1012000E000200C490870012194
:1012500089020920C006FFF7B4FF002801D1012050
:1012600000E0002006490870002003494880034937
:1012700048800349488008BD0C0000201000002071
:10128000140000200146012902D107480078704768
:10129000022902D105480078F9E7042902D104485F
:1012A0000078F4E70020F2E70C0000201000002096
:1012B0001400002010B500240E490120000300F0A6
:1012C0001FF8002801D0012004430B4901204002EF
:1012D00000F016F8002801D002200443074901203D
:1012E000800200F00DF8002801D0042004432046BD
:1012F00010BD00000C000020100000201400002091
:10130000F8B506460C46002731460920C006FFF70F
:1013100058FF002801D1012000E000200546207878
:10132000A84202D10020608011E06088142802D217
:101330006088401C60806088142808D3002060808A
:101340002078002802D0002D00D1012725703846D2
:10135000F8BD000010B503490920C006FFF73CFFA7
:1013600010BD00008B09000008B50121480400F001
:101370003DFA0A490920C006FFF72EFF6846FFF72D
:101380002DFF064968460180032181701021C1703C
:1013900069460920C006FFF7B3FE08BD8B090000AF
:1013A00070B504460D46062C00D370BD6000084998
:1013B0000E5A002D05D031460920C006FFF70AFF5E
:1013C00004E031460920C006FFF706FF00BFECE746
:1013D000081E000870B5054600240DE00120A0405D
:1013E0002840002801D0012000E0002001462046CE
:1013F000FFF7D6FF601CC4B2062CEFD370BD00000F
:1014000070B50446642C00D9642409480088401C47
:101410006043054664212846FEF76CFE05460448F5
:101420000088854201D902480588A8B270BD000035
:101430000800002001480078704700000A000020E2
:1014400010B58EB00121480400F0D0F960210920C8
:10145000C006FFF7BFFE0DA8FFF7C0FE602168467B
:101460008186032108A881751021C1750DA9092065
:10147000C006FFF745FE0121042000F0C7F93F48F0
:1014800000F006FB04467D210902FEF733FE401EF4
:101490003B49088008A800F03FFC00216846018411
:1014A00020200990364800880A9000200B9008A858
:1014B000017408A9314800F001FC01212F4800F017
:1014C00091FA684600F0E9FB0620009000200190A8
:1014D000012002900020039004900120059000203C
:1014E000069007906946254800F036FB08212348FE
:1014F00000F07AFB0120019000200290039001206F
:10150000049069461D4800F077FB08211B4800F055
:10151000BDFB012205210920C006FFF73EFE042283
:1015200006210920C006FFF738FE0DA8FFF756FE7A
:10153000602168468186032108A881751821C1753C
:101540000DA90920C006FFF7DBFD002211460B485C
:1015500000F061FA00220821084800F04FFA01214A
:10156000064800F079FA0121044800F069FA0020E9
:1015700004490870044908700EB010BD002C0140E9
:10158000080000200A0000200B00002070B504466F
:101590000025032C00D90324012C01D1202502E0D1
:1015A000022C00D112252846FFF72AFF06463146B5
:1015B000094800F07CFB09480470002C05D100228A
:1015C0001146054800F027FA04E0042200210248F1
:1015D00000F021FA70BD0000002C01400A0000203C
:1015E00070B504460025032C00D90324012C01D139
:1015F0001E2506E0022C01D10A2502E0032C00D1B1
:1016000000252846FFF7FCFE06463146094800F053
:1016100051FB09480470002C05D10022082105481F
:1016200000F0ECF904E001220821024800F0E6F99C
:1016300070BD0000002C01400B00002010B50021FF
:101640000B4800F034FB0021094800F033FB002276
:101650001146074800F0DFF900220821044800F095
:10166000CDF90020034908700349087010BD00003F
:10167000002C01400A0000200B00002070470000F1
:101680008178002925D0174903221202891802788F
:1016900092109200895802789207D30EFF229A4046
:1016A000914342789207120E03789B07DB0E9A4013
:1016B00011430C4A03231B02D21803789B109B0092
:1016C000D1500178CA06D20E01219140054A11601D
:1016D00007E00178CA06D20E01219140014A80320A
:1016E0001160704700E100E010B500F001F810BD96
:1016F0003EB5684600F09AF87D21C9000198FEF7D2
:10170000F9FC0446601E0D49884201D901200CE015
:10171000601E0B4948610321081F00F007FB0020F1
:1017200007498861072008610020002801D000BF18
:10173000FEE70021481E00F0F9FA3EBDFFFFFF0062
:1017400000E000E07047000008B50121480400F007
:101750004DF80121C9030920C006FFF73BFD102108
:101760000920C006FFF738FD6846FFF737FD064938
:1017700068460180032181701021C17069460920EB
:10178000C006FFF7BDFC08BD1080000010B50121A8
:10179000C9030920C006FFF71DFD10210920C0065E
:1017A000FFF718FD10BD10B50446002C06D001212E
:1017B000C9030920C006FFF70FFD05E00121C90399
:1017C0000920C006FFF706FD10BD10B50446002C29
:1017D00005D010210920C006FFF7FEFC04E010210F
:1017E0000920C006FFF7F6FC10BD0000002905D057
:1017F000054A52690243044B5A6104E0024A5269A5
:101800008243014B5A61704700100240002905D005
:10181000054AD2690243044BDA6104E0024AD26904
:101820008243014BDA6170470010024010B500217D
:1018300000221A4B5B680C2423401946002906D06D
:10184000042907D0082908D00C290CD108E0144B32
:1018500003600BE0124B036008E0124B036005E0ED
:10186000114B036002E00E4B036000BF00BF0B4B47
:101870005B68F024234019090C4B5A5C0368D34081
:101880004360064B5B68072424022340190A084B77
:101890005A5C4368D340836010BD000000100240D2
:1018A00000127A00006CDC02409C0000470000201F
:1018B00057000020704700000CB500210191012164
:1018C000009100201C490968012211431A4A116045
:1018D00000BF19490968022211400029F9D01749AF
:1018E000174A11601121174A116013494868F02204
:1018F00001469143084600BF0F49486048680722E7
:10190000120201469143084600BF0B4948604968EE
:1019100089088900084A516011464968022211432A
:10192000054A516000E000BF034949680C2211409C
:101930000829F8D10CBD000000100240006CDC0248
:10194000600000200020024004480068002804D005
:1019500002480068401E01490860704704000020EA
:1019600010B50D480068012108430B49086008467E
:1019700040680A4908400849486008460068012153
:1019800009048843044908600020C043886000209F
:101990008860FFF791FF10BD001002400CF8FFF8BF
:1019A00010B50121064800F065F8002806D0012096
:1019B000044908700121024800F03EF810BD000003
:1019C000004001400000002010B50121044800F053
:1019D00051F8002803D00121014800F02DF810BD76
:1019E00000040040002904D0026880231A430260EA
:1019F00003E0026880239A430260704730B5036AAF
:101A000001248C40A34314468C4001258D402C407A
:101A10002343036230BD30B5036A04248C40A343E2
:101A200014468C4004258D402C402343036230BD76
:101A300002698A430261704702698A430261704702
:101A4000002904D0026801231A43026003E00268FF
:101A50005208520002607047002905D0426C0123F1
:101A6000DB031A43426404E0426C0123DB039A4324
:101A700042647047024610690840002805D0D068CB
:101A80000840002801D0012070470020FCE700003A
:101A9000F0B58BB00646002400200A9000250027F0
:101AA00020A103C90991089020A001460EC9C06871
:101AB000069305920491079001A8FFF7B7FE039CD7
:101AC0001E484068072109020840050A1C48864252
:101AD0001DD11A484068F0210840070904A8C05DDC
:101AE000002808D108A8405D002801D1204600E068
:101AF00060000A9013E008A8405D002801D1600052
:101B000000E0A00004A9C95DC8400A9007E008A849
:101B1000405D002801D1204600E060000A900A984C
:101B20000BB0F0BD0000000002040810000000002F
:101B3000000000000102030406070809001002402B
:101B4000002C0140002A03D0C3680B43C36002E0AD
:101B5000C3688B43C360704710B5826970239A4392
:101B60000B681B01702423401A438261026A5208E9
:101B700052000B79DB07DB0F1A430262026A022371
:101B80009A430B695B00022423401A430262CA682D
:101B90004263144A904223D1026A04239A438B6819
:101BA0009B00042423401A430262026A08239A43DA
:101BB0004B69DB00082423401A4302624268831504
:101BC0009A438B691B02841523401A434260426882
:101BD00043159A43CB695B02441523401A43426084
:101BE00010BD0000002C0140826908239A430B407D
:101BF0001A4382617047000010B5C26970239A438E
:101C00000B681B01702423401A43C261026AFF2340
:101C100001339A434B681B02FF24013423401A43CB
:101C20000262026A63009A430B695B02640023400C
:101C30001A430262CA68C263134A904223D1026AFD
:101C400003159A438B689B02041523401A430262D2
:101C5000026AC3149A434B69DB02C41423401A433B
:101C60000262426883149A438B691B0384142340E5
:101C70001A434260426843149A43CB695B0344149D
:101C800023401A43426010BD002C0140C269082362
:101C90009A430B401A43C2617047002101604160C2
:101CA0008160C160016141618161C16170478AB237
:101CB000426370478AB2C2637047000010B5026881
:101CC00003231B029A4303242402CB6823401A43B4
:101CD00002600F4A904202D00E4A904207D1026839
:101CE00070239A4370244B6823401A430260084AC9
:101CF000904205D1026B120A12020B7C1A43026356
:101D00008A68C2620A8882620122426110BD0000B4
:101D1000002C0140000400400021C94381600021E3
:101D20000180C160416001747047000010B5002857
:101D300019DB1A4A03231B02D21883089B00D258CE
:101D40008307DC0EFF23A3409A438B071B0E8407F7
:101D5000E40EA3401A43114B032424021B198408E8
:101D6000A4001A5118E00E4A03071B0F083B9B08FA
:101D70009B00D2588307DC0EFF23A3409A438B07B6
:101D80001B0E8407E40EA3401A43054B0407240FDF
:101D9000083CA408A4001A5110BD000000E100E0B6
:101DA0001CED00E002E008C8121F08C1002AFAD1A9
:101DB00070477047002001E001C1121F002AFBD1CB
:101DC00070470000FFF790FCFFF7BEFCFFF710FA2A
:101DD000FFF7CAFAFFF734FBFEF776FAFEF756FB79
:101DE000FEF750FEFEF76CFFFEF7F0FB08E005483B
:101DF0000078002804D0002002490870FEF7A0FDFA
:101E0000F5E700000000002000080200010080004B
:101E100000010800341E00080000002064000000DB
:101E2000A41D0008981E00086400002004020000A1
:101E3000B41D0008000000000000000000000000C9
:101E40000000000000000000000000000000000092
:101E50000000000000000000000000000000000082
:101E60000000000000000000000000000001010070
:101E7000003C00080000000000000000000000001E
:101E80000000000102030406070809000000000129
:081E900002030400006CDC02F7
:04000005080000C12E
:00000001FF
